{
  "address": "0x3EA4857E2402D9671a7289233024f00728Fa8314",
  "abi": [
    {
      "inputs": [],
      "stateMutability": "nonpayable",
      "type": "constructor"
    },
    {
      "inputs": [
        {
          "internalType": "address",
          "name": "owner",
          "type": "address"
        }
      ],
      "name": "OwnableInvalidOwner",
      "type": "error"
    },
    {
      "inputs": [
        {
          "internalType": "address",
          "name": "account",
          "type": "address"
        }
      ],
      "name": "OwnableUnauthorizedAccount",
      "type": "error"
    },
    {
      "inputs": [],
      "name": "ReentrancyGuardReentrantCall",
      "type": "error"
    },
    {
      "anonymous": false,
      "inputs": [
        {
          "indexed": true,
          "internalType": "uint256",
          "name": "presaleId",
          "type": "uint256"
        },
        {
          "indexed": true,
          "internalType": "address",
          "name": "user",
          "type": "address"
        },
        {
          "indexed": false,
          "internalType": "uint256",
          "name": "amount",
          "type": "uint256"
        },
        {
          "indexed": false,
          "internalType": "uint256",
          "name": "tokensReceived",
          "type": "uint256"
        }
      ],
      "name": "Deposit",
      "type": "event"
    },
    {
      "anonymous": false,
      "inputs": [
        {
          "indexed": true,
          "internalType": "uint256",
          "name": "presaleId",
          "type": "uint256"
        },
        {
          "indexed": true,
          "internalType": "address",
          "name": "recipient",
          "type": "address"
        },
        {
          "indexed": false,
          "internalType": "uint256",
          "name": "amount",
          "type": "uint256"
        }
      ],
      "name": "FundsWithdrawn",
      "type": "event"
    },
    {
      "anonymous": false,
      "inputs": [
        {
          "indexed": true,
          "internalType": "address",
          "name": "previousOwner",
          "type": "address"
        },
        {
          "indexed": true,
          "internalType": "address",
          "name": "newOwner",
          "type": "address"
        }
      ],
      "name": "OwnershipTransferred",
      "type": "event"
    },
    {
      "anonymous": false,
      "inputs": [
        {
          "indexed": true,
          "internalType": "uint256",
          "name": "presaleId",
          "type": "uint256"
        },
        {
          "indexed": false,
          "internalType": "address",
          "name": "tokenAddress",
          "type": "address"
        },
        {
          "indexed": false,
          "internalType": "string",
          "name": "tokenSymbol",
          "type": "string"
        },
        {
          "indexed": false,
          "internalType": "uint256",
          "name": "tokenPrice",
          "type": "uint256"
        }
      ],
      "name": "PresaleCreated",
      "type": "event"
    },
    {
      "anonymous": false,
      "inputs": [
        {
          "indexed": true,
          "internalType": "uint256",
          "name": "presaleId",
          "type": "uint256"
        },
        {
          "indexed": false,
          "internalType": "bool",
          "name": "isActive",
          "type": "bool"
        }
      ],
      "name": "PresaleUpdated",
      "type": "event"
    },
    {
      "anonymous": false,
      "inputs": [
        {
          "indexed": true,
          "internalType": "uint256",
          "name": "presaleId",
          "type": "uint256"
        },
        {
          "indexed": true,
          "internalType": "address",
          "name": "user",
          "type": "address"
        },
        {
          "indexed": false,
          "internalType": "uint256",
          "name": "amount",
          "type": "uint256"
        }
      ],
      "name": "TokensWithdrawn",
      "type": "event"
    },
    {
      "anonymous": false,
      "inputs": [
        {
          "indexed": true,
          "internalType": "uint256",
          "name": "presaleId",
          "type": "uint256"
        },
        {
          "indexed": true,
          "internalType": "address",
          "name": "user",
          "type": "address"
        },
        {
          "indexed": false,
          "internalType": "uint256",
          "name": "amount",
          "type": "uint256"
        },
        {
          "indexed": false,
          "internalType": "uint8",
          "name": "tier",
          "type": "uint8"
        }
      ],
      "name": "WhitelistUpdated",
      "type": "event"
    },
    {
      "inputs": [
        {
          "internalType": "uint256",
          "name": "_presaleId",
          "type": "uint256"
        },
        {
          "internalType": "address[]",
          "name": "_users",
          "type": "address[]"
        },
        {
          "internalType": "uint256[]",
          "name": "_amounts",
          "type": "uint256[]"
        }
      ],
      "name": "addToTier1Whitelist",
      "outputs": [],
      "stateMutability": "nonpayable",
      "type": "function"
    },
    {
      "inputs": [
        {
          "internalType": "uint256",
          "name": "_presaleId",
          "type": "uint256"
        },
        {
          "internalType": "address[]",
          "name": "_users",
          "type": "address[]"
        },
        {
          "internalType": "uint256[]",
          "name": "_amounts",
          "type": "uint256[]"
        }
      ],
      "name": "addToTier2Whitelist",
      "outputs": [],
      "stateMutability": "nonpayable",
      "type": "function"
    },
    {
      "inputs": [
        {
          "internalType": "uint256",
          "name": "_presaleId",
          "type": "uint256"
        },
        {
          "internalType": "uint256",
          "name": "_ethAmount",
          "type": "uint256"
        }
      ],
      "name": "calculateTokenAmount",
      "outputs": [
        {
          "internalType": "uint256",
          "name": "",
          "type": "uint256"
        }
      ],
      "stateMutability": "view",
      "type": "function"
    },
    {
      "inputs": [
        {
          "internalType": "address",
          "name": "_tokenAddress",
          "type": "address"
        },
        {
          "internalType": "string",
          "name": "_tokenSymbol",
          "type": "string"
        },
        {
          "internalType": "uint256",
          "name": "_tokenPrice",
          "type": "uint256"
        },
        {
          "internalType": "uint256",
          "name": "_valuation",
          "type": "uint256"
        },
        {
          "internalType": "uint256",
          "name": "_totalAllocation",
          "type": "uint256"
        },
        {
          "internalType": "uint256",
          "name": "_startTime",
          "type": "uint256"
        },
        {
          "internalType": "uint256",
          "name": "_endTime",
          "type": "uint256"
        },
        {
          "internalType": "uint256",
          "name": "_minDepositAmount",
          "type": "uint256"
        },
        {
          "internalType": "uint256",
          "name": "_maxDepositAmount",
          "type": "uint256"
        },
        {
          "internalType": "uint256",
          "name": "_totalRaiseGoal",
          "type": "uint256"
        },
        {
          "internalType": "uint256",
          "name": "_tier1WhitelistEndTime",
          "type": "uint256"
        },
        {
          "internalType": "uint256",
          "name": "_tier2WhitelistEndTime",
          "type": "uint256"
        }
      ],
      "name": "createPresale",
      "outputs": [],
      "stateMutability": "nonpayable",
      "type": "function"
    },
    {
      "inputs": [
        {
          "internalType": "uint256",
          "name": "_presaleId",
          "type": "uint256"
        }
      ],
      "name": "deposit",
      "outputs": [],
      "stateMutability": "payable",
      "type": "function"
    },
    {
      "inputs": [
        {
          "internalType": "uint256",
          "name": "_presaleId",
          "type": "uint256"
        },
        {
          "internalType": "address",
          "name": "_user",
          "type": "address"
        }
      ],
      "name": "getUserDeposit",
      "outputs": [
        {
          "internalType": "uint256",
          "name": "",
          "type": "uint256"
        }
      ],
      "stateMutability": "view",
      "type": "function"
    },
    {
      "inputs": [
        {
          "internalType": "uint256",
          "name": "_presaleId",
          "type": "uint256"
        },
        {
          "internalType": "address",
          "name": "_user",
          "type": "address"
        }
      ],
      "name": "getUserWhitelistStatus",
      "outputs": [
        {
          "internalType": "uint256",
          "name": "tier1Amount",
          "type": "uint256"
        },
        {
          "internalType": "uint256",
          "name": "tier2Amount",
          "type": "uint256"
        }
      ],
      "stateMutability": "view",
      "type": "function"
    },
    {
      "inputs": [],
      "name": "owner",
      "outputs": [
        {
          "internalType": "address",
          "name": "",
          "type": "address"
        }
      ],
      "stateMutability": "view",
      "type": "function"
    },
    {
      "inputs": [],
      "name": "presaleCounter",
      "outputs": [
        {
          "internalType": "uint256",
          "name": "",
          "type": "uint256"
        }
      ],
      "stateMutability": "view",
      "type": "function"
    },
    {
      "inputs": [
        {
          "internalType": "uint256",
          "name": "",
          "type": "uint256"
        }
      ],
      "name": "presales",
      "outputs": [
        {
          "internalType": "uint256",
          "name": "presaleId",
          "type": "uint256"
        },
        {
          "internalType": "address",
          "name": "tokenAddress",
          "type": "address"
        },
        {
          "internalType": "string",
          "name": "tokenSymbol",
          "type": "string"
        },
        {
          "internalType": "uint256",
          "name": "tokenPrice",
          "type": "uint256"
        },
        {
          "internalType": "uint256",
          "name": "valuation",
          "type": "uint256"
        },
        {
          "internalType": "uint256",
          "name": "totalAllocation",
          "type": "uint256"
        },
        {
          "internalType": "uint256",
          "name": "startTime",
          "type": "uint256"
        },
        {
          "internalType": "uint256",
          "name": "endTime",
          "type": "uint256"
        },
        {
          "internalType": "uint256",
          "name": "minDepositAmount",
          "type": "uint256"
        },
        {
          "internalType": "uint256",
          "name": "maxDepositAmount",
          "type": "uint256"
        },
        {
          "internalType": "uint256",
          "name": "totalRaiseGoal",
          "type": "uint256"
        },
        {
          "internalType": "uint256",
          "name": "totalRaised",
          "type": "uint256"
        },
        {
          "internalType": "uint256",
          "name": "tier1WhitelistEndTime",
          "type": "uint256"
        },
        {
          "internalType": "uint256",
          "name": "tier2WhitelistEndTime",
          "type": "uint256"
        },
        {
          "internalType": "bool",
          "name": "isActive",
          "type": "bool"
        }
      ],
      "stateMutability": "view",
      "type": "function"
    },
    {
      "inputs": [
        {
          "internalType": "address",
          "name": "_tokenAddress",
          "type": "address"
        },
        {
          "internalType": "address",
          "name": "_recipient",
          "type": "address"
        }
      ],
      "name": "recoverERC20",
      "outputs": [],
      "stateMutability": "nonpayable",
      "type": "function"
    },
    {
      "inputs": [],
      "name": "renounceOwnership",
      "outputs": [],
      "stateMutability": "nonpayable",
      "type": "function"
    },
    {
      "inputs": [
        {
          "internalType": "uint256",
          "name": "_presaleId",
          "type": "uint256"
        },
        {
          "internalType": "bool",
          "name": "_isActive",
          "type": "bool"
        }
      ],
      "name": "setPresaleStatus",
      "outputs": [],
      "stateMutability": "nonpayable",
      "type": "function"
    },
    {
      "inputs": [
        {
          "internalType": "uint256",
          "name": "",
          "type": "uint256"
        },
        {
          "internalType": "address",
          "name": "",
          "type": "address"
        }
      ],
      "name": "tier1Whitelist",
      "outputs": [
        {
          "internalType": "uint256",
          "name": "",
          "type": "uint256"
        }
      ],
      "stateMutability": "view",
      "type": "function"
    },
    {
      "inputs": [
        {
          "internalType": "uint256",
          "name": "",
          "type": "uint256"
        },
        {
          "internalType": "address",
          "name": "",
          "type": "address"
        }
      ],
      "name": "tier2Whitelist",
      "outputs": [
        {
          "internalType": "uint256",
          "name": "",
          "type": "uint256"
        }
      ],
      "stateMutability": "view",
      "type": "function"
    },
    {
      "inputs": [
        {
          "internalType": "address",
          "name": "newOwner",
          "type": "address"
        }
      ],
      "name": "transferOwnership",
      "outputs": [],
      "stateMutability": "nonpayable",
      "type": "function"
    },
    {
      "inputs": [
        {
          "internalType": "uint256",
          "name": "",
          "type": "uint256"
        },
        {
          "internalType": "address",
          "name": "",
          "type": "address"
        }
      ],
      "name": "userDeposits",
      "outputs": [
        {
          "internalType": "uint256",
          "name": "",
          "type": "uint256"
        }
      ],
      "stateMutability": "view",
      "type": "function"
    },
    {
      "inputs": [
        {
          "internalType": "uint256",
          "name": "_presaleId",
          "type": "uint256"
        },
        {
          "internalType": "address payable",
          "name": "_recipient",
          "type": "address"
        }
      ],
      "name": "withdrawFunds",
      "outputs": [],
      "stateMutability": "nonpayable",
      "type": "function"
    },
    {
      "inputs": [
        {
          "internalType": "uint256",
          "name": "_presaleId",
          "type": "uint256"
        }
      ],
      "name": "withdrawTokens",
      "outputs": [],
      "stateMutability": "nonpayable",
      "type": "function"
    }
  ],
  "transactionHash": "0x9bdcade5936dd2b658fa458bfa76d803782befbb1aecdf8d76cb8daac872eefb",
  "args": [],
  "numDeployments": 1,
  "solcInputHash": "000cc53babc47b82895d7960c0bf7869",
  "bytecode": "0x6080806040523461007e5733156100685760008054336001600160a01b03198216811783556040519290916001600160a01b0316907f8be0079c531659141344cd1fd0a4f28419497f9722a3daafe3b4186f6b6457e09080a360018055611c7390816100848239f35b631e4fbdf760e01b815260006004820152602490fd5b600080fdfe6080604052600436101561001257600080fd5b60003560e01c8063035538351461183f5780630b884728146117f75780632a96abae14610ff35780632d5c5f6e14610fd5578063315a095d14610e48578063459ffc1e14610de25780634e055244146100ed57806351010f9314610cf6578063637624fe14610cae578063715018a614610c55578063744bfe6114610b025780637dbfb36d1461097a57806387697cc4146108ab578063886f039a146107875780638da5cb5b1461075e578063af6685b11461066e578063b6b55f25146101c8578063f2fde38b1461013a5763f9c516ea146100ed57600080fd5b3461013557604036600319011261013557610106611896565b600435600052600360205260406000209060018060a01b03166000526020526020604060002054604051908152f35b600080fd5b34610135576020366003190112610135576101536118ac565b61015b6119fb565b6001600160a01b039081169081156101af57600054826bffffffffffffffffffffffff60a01b821617600055167f8be0079c531659141344cd1fd0a4f28419497f9722a3daafe3b4186f6b6457e0600080a3005b604051631e4fbdf760e01b815260006004820152602490fd5b602080600319360112610135576004356101e0611b72565b806000526002825260406000206101fd60ff600e83015416611a36565b6006810154421061062957600781015442116105f0576008810154341061059f5781600052600390818452604060002033600052845261024234604060002054611af9565b60098201541061055a57600b81019061025c348354611af9565b600a8201541061051557600c81015442116103bb578360005260048552604060002033600052855260406000205415610376578360005282855260406000203360005285526102d36102b334604060002054611af9565b856000526004875260406000203360005287526040600020541015611b06565b670de0b6b3a764000080340290348204143415171561036057836102f992015490611b52565b918360005284526040600020336000528452604060002061031b348254611af9565b9055610328348254611af9565b9055604051923484528301527fd36a2f67d06d285786f61a32b052b9ace6b0b7abef5177b54358abdc83a0b69b60403393a360018055005b634e487b7160e01b600052601160045260246000fd5b60405162461bcd60e51b815260048101869052601760248201527f4e6f7420696e207469657220312077686974656c6973740000000000000000006044820152606490fd5b600d8101544211156103cd575b6102d3565b83600052600485526040600020336000528552604060002054158015906104f4575b156104b8576000848152600486526040808220338352875290205415610433578360005282855260406000203360005285526103c86102b334604060002054611af9565b83600052828552604060002033600052855261045434604060002054611af9565b8460005260058652604060002033600052865260406000205410156103c85760405162461bcd60e51b815260048101869052601f60248201527f45786365656473207469657220322077686974656c69737420616d6f756e74006044820152606490fd5b60405162461bcd60e51b8152600481018690526014602482015273139bdd081a5b88185b9e481dda1a5d195b1a5cdd60621b6044820152606490fd5b508360005260058552604060002033600052855260406000205415156103ef565b60405162461bcd60e51b815260048101869052601860248201527f4578636565647320746f74616c20726169736520676f616c00000000000000006044820152606490fd5b60405162461bcd60e51b815260048101859052601e60248201527f45786365656473206d6178696d756d206465706f73697420616d6f756e7400006044820152606490fd5b60405162461bcd60e51b815260048101849052602360248201527f4465706f73697420616d6f756e74206973206c657373207468616e206d696e696044820152626d756d60e81b6064820152608490fd5b60405162461bcd60e51b8152600481018490526011602482015270141c995cd85b19481a185cc8195b991959607a1b6044820152606490fd5b60405162461bcd60e51b815260048101849052601b60248201527f50726573616c6520686173206e6f7420737461727465642079657400000000006044820152606490fd5b346101355761067c36611931565b919390926106886119fb565b816000526002946020938685526106a960ff600e6040600020015416611a36565b6106b4818314611a7a565b60005b8281106106c057005b8088867ffa8586e3746c24cb9747949d6808eee4fa8e8ac9cd30a7c650dc65158362538360408a8c610746878a61074061072c8f9c8f6107599e61070583878b611abf565b60008e815260058c528c90206001600160a01b039b9135918c61073161072c888888611abf565b611ae5565b16600052528b60002055611abf565b93611abf565b359583519687528d8701521693a3611a27565b6106b7565b34610135576000366003190112610135576000546040516001600160a01b039091168152602090f35b34610135576040366003190112610135576107a06118ac565b6107a8611896565b906107b16119fb565b6040516370a0823160e01b81523060048201526020926001600160a01b0392909216918382602481865afa90811561086c578492600092610878575b5060405163a9059cbb60e01b81526001600160a01b039091166004820152602481019190915291829081600081604481015b03925af190811561086c5761083d9260009261083f575b5050611bf9565b005b61085e9250803d10610865575b61085681836118c2565b810190611be1565b8280610836565b503d61084c565b6040513d6000823e3d90fd5b8381949293503d83116108a4575b61089081836118c2565b81010312610135579051839161081f6107ed565b503d610886565b346101355760403660031901126101355760043560243580151590818103610135576108d56119fb565b826000526002602052826040600020540361093c577fa2eb246c0db06549b910e366aad678d6c2e1ebc47b5b5b46c8f8c29730287096916109336020928560005260028452600e6040600020019060ff801983541691151516179055565b604051908152a2005b60405162461bcd60e51b8152602060048201526016602482015275141c995cd85b1948191bd95cc81b9bdd08195e1a5cdd60521b6044820152606490fd5b34610135576020366003190112610135576004356000526002602052604060002080549060019160018060a01b03838301541691600281016040519485916000918154916109c783611981565b80865292828116908115610ae25750600114610a9f575b505050036109ec90856118c2565b60038101549060048101546005820154600683015460078401546008850154600986015491600a87015493600b88015495600c89015497600d8a015499600e015460ff169a6040519e8f9e8f9e8f908152602001528d6101e09081604082015201610a56916119bb565b9c6060015260808d015260a08c015260c08b015260e08a01526101008901526101208801526101408701526101608601526101808501526101a084015215156101c08301520390f35b60009081526020812092949350915b848310610ac757505081602092935001018680806109de565b81935090816020925483858c01015201910190918792610aae565b925050506020925060ff191682840152151560051b8201018680806109de565b34610135576040366003190112610135576024356001600160a01b038116906004359082900361013557610b346119fb565b610b3c611b72565b8060005260026020526040600020610b5960078201544211611b95565b8215610c1057600b01600081549155600080808084875af13d15610c0b573d610b81816118e4565b90610b8f60405192836118c2565b8152600060203d92013e5b15610bd05760207ff440aec6b52895984d061d622e6edeba6210f7c3e059be920663140c084560d791604051908152a360018055005b60405162461bcd60e51b8152602060048201526013602482015272115512081d1c985b9cd9995c8819985a5b1959606a1b6044820152606490fd5b610b9a565b60405162461bcd60e51b815260206004820152601960248201527f496e76616c696420726563697069656e742061646472657373000000000000006044820152606490fd5b3461013557600036600319011261013557610c6e6119fb565b600080546001600160a01b0319811682556001600160a01b03167f8be0079c531659141344cd1fd0a4f28419497f9722a3daafe3b4186f6b6457e08280a3005b3461013557604036600319011261013557610cc7611896565b600435600052600560205260406000209060018060a01b03166000526020526020604060002054604051908152f35b3461013557610d0436611931565b610d129491949392936119fb565b8160005260209260028452610d3160ff600e6040600020015416611a36565b610d3c828614611a7a565b60005b858110610d4857005b8087857ffa8586e3746c24cb9747949d6808eee4fa8e8ac9cd30a7c650dc651583625383604089610dc8868a610dc28f8361072c918e610d8c610ddd9f878f611abf565b60008d815260048b528b90206001600160a01b039a9135918b610db361072c888888611abf565b16600052528a60002055611abf565b97611abf565b3594825195865260018c8701521693a3611a27565b610d3f565b34610135576040366003190112610135576040600435610e00611896565b816000526004602052826000209060018060a01b0316908160005260205282600020549160005260056020528260002090600052602052816000205482519182526020820152f35b346101355760208060031936011261013557600435610e65611b72565b8060005260028252604060002091610e8260078401544211611b95565b8160005260038152604060002033600052815260406000205415610f9d5781600052600381526040600020336000528152604060002054670de0b6b3a764000090818102918183041490151715610360576003840154610ee191611b52565b60008381526003835260408082203380845290855281832083905560019690960154905163a9059cbb60e01b8152600481019690965260248601839052919492918291849160449183916001600160a01b03165af191821561086c577f3f5fbaf86658fdadee77f1d46e7f8a72424ad9839eda6a1dc6eb0a4228e4226e92610f7191600091610f80575b50611bf9565b6040519384523393a360018055005b610f979150833d85116108655761085681836118c2565b86610f6b565b6064906040519062461bcd60e51b825260048201526011602482015270139bc819195c1bdcda5d1cc8199bdd5b99607a1b6044820152fd5b34610135576000366003190112610135576020600654604051908152f35b34610135576101803660031901126101355761100d6118ac565b60243567ffffffffffffffff81116101355736602382011215610135578060040135611038816118e4565b9161104660405193846118c2565b81835236602483830101116101355781600092602460209301838601378301015261106f6119fb565b6001600160a01b038216156117ba5780511561177e5760449081351561172f576064928335156116ec5760849283351561169a5760c43560a435101561164d5760e435156116005760e43561010435106115985761012435156115465760a43561014435106114e9576101443561016435106114815760c4356101643511611425576110fc600654611a27565b938460065560405195866101e081011067ffffffffffffffff6101e08901111761140f576101e0870160405285875260018060a01b0384166020880152846040880152823560608801523560808701523560a086015260a43560c086015260c43560e086015260e4356101008601526101043561012086015261012435610140860152600061016086015261014435610180860152610164356101a086015260016101c08601528360005260026020526040600020855181556001810160018060a01b036020880151166bffffffffffffffffffffffff60a01b825416179055604086015195865167ffffffffffffffff811161140f576112006002840154611981565b601f81116113c8575b506020601f821160011461132d576112f2939282600e936101c0937f12126851c6c652371b37b88889202cb01b4c07c85e588845cb89ac526ea9a9969b9c600092611322575b50508160011b916000199060031b1c19161760028501555b606081015160038501556080810151600485015560a0810151600585015560c0810151600685015560e0810151600785015561010081015160088501556101208101516009850155610140810151600a850155610160810151600b850155610180810151600c8501556101a0810151600d8501550151151591019060ff801983541691151516179055565b61131660405193849360018060a01b031684526060602085015260608401906119bb565b903560408301520390a2005b015190508c8061124f565b6002840160005260206000209860005b601f19841681106113b05750926001837f12126851c6c652371b37b88889202cb01b4c07c85e588845cb89ac526ea9a9969a9b6101c0946112f29897600e97601f19811610611397575b505050811b016002850155611267565b015160001960f88460031b161c191690558c8080611387565b828201518b556001909a01996020928301920161133d565b600284016000526020600020601f830160051c810160208410611408575b601f830160051c820181106113fc575050611209565b600081556001016113e6565b50806113e6565b634e487b7160e01b600052604160045260246000fd5b83907065206265666f726520656e642074696d6560781b867f5469657220322077686974656c69737420656e642074696d65206d75737420626040519362461bcd60e51b85526020600486015260316024860152840152820152fd5b83907f652061667465722074696572203120656e642074696d65000000000000000000867f5469657220322077686974656c69737420656e642074696d65206d75737420626040519362461bcd60e51b85526020600486015260376024860152840152820152fd5b839071652061667465722073746172742074696d6560701b867f5469657220312077686974656c69737420656e642074696d65206d75737420626040519362461bcd60e51b85526020600486015260326024860152840152820152fd5b8390660207468616e20360cc1b867f546f74616c20726169736520676f616c206d75737420626520677265617465726040519362461bcd60e51b85526020600486015260276024860152840152820152fd5b83907f206f7220657175616c20746f206d696e206465706f7369740000000000000000867f4d6178206465706f736974206d7573742062652067726561746572207468616e6040519362461bcd60e51b85526020600486015260386024860152840152820152fd5b839061020360f41b867f4d696e206465706f736974206d7573742062652067726561746572207468616e6040519362461bcd60e51b85526020600486015260226024860152840152820152fd5b8390616d6560f01b867f53746172742074696d65206d757374206265206265666f726520656e642074696040519362461bcd60e51b85526020600486015260226024860152840152820152fd5b8390660207468616e20360cc1b867f546f74616c20616c6c6f636174696f6e206d75737420626520677265617465726040519362461bcd60e51b85526020600486015260276024860152840152820152fd5b50507f56616c756174696f6e206d7573742062652067726561746572207468616e20306040519162461bcd60e51b83526020600484015260206024840152820152fd5b60405162461bcd60e51b815260206004820152602260248201527f546f6b656e207072696365206d7573742062652067726561746572207468616e8184015261020360f41b6064820152608490fd5b60405162461bcd60e51b8152602060048201526014602482015273125b9d985b1a59081d1bdad95b881cde5b589bdb60621b6044820152606490fd5b60405162461bcd60e51b8152602060048201526015602482015274496e76616c696420746f6b656e206164647265737360581b6044820152606490fd5b3461013557604036600319011261013557611810611896565b600435600052600460205260406000209060018060a01b03166000526020526020604060002054604051908152f35b346101355760403660031901126101355760243560043560005260026020526040600020670de0b6b3a76400009182810292818404149015171561036057602091600361188e92015490611b52565b604051908152f35b602435906001600160a01b038216820361013557565b600435906001600160a01b038216820361013557565b90601f8019910116810190811067ffffffffffffffff82111761140f57604052565b67ffffffffffffffff811161140f57601f01601f191660200190565b9181601f840112156101355782359167ffffffffffffffff8311610135576020808501948460051b01011161013557565b906060600319830112610135576004359167ffffffffffffffff91602435838111610135578261196391600401611900565b939093926044359182116101355761197d91600401611900565b9091565b90600182811c921680156119b1575b602083101461199b57565b634e487b7160e01b600052602260045260246000fd5b91607f1691611990565b919082519283825260005b8481106119e7575050826000602080949584010152601f8019910116010190565b6020818301810151848301820152016119c6565b6000546001600160a01b03163303611a0f57565b60405163118cdaa760e01b8152336004820152602490fd5b60001981146103605760010190565b15611a3d57565b60405162461bcd60e51b815260206004820152601560248201527450726573616c65206973206e6f742061637469766560581b6044820152606490fd5b15611a8157565b60405162461bcd60e51b8152602060048201526016602482015275082e4e4c2f2e640d8cadccee8d040dad2e6dac2e8c6d60531b6044820152606490fd5b9190811015611acf5760051b0190565b634e487b7160e01b600052603260045260246000fd5b356001600160a01b03811681036101355790565b9190820180921161036057565b15611b0d57565b60405162461bcd60e51b815260206004820152601f60248201527f45786365656473207469657220312077686974656c69737420616d6f756e74006044820152606490fd5b8115611b5c570490565b634e487b7160e01b600052601260045260246000fd5b600260015414611b83576002600155565b604051633ee5aeb560e01b8152600490fd5b15611b9c57565b60405162461bcd60e51b815260206004820152601960248201527f50726573616c6520686173206e6f7420656e64656420796574000000000000006044820152606490fd5b90816020910312610135575180151581036101355790565b15611c0057565b60405162461bcd60e51b8152602060048201526015602482015274151bdad95b881d1c985b9cd9995c8819985a5b1959605a1b6044820152606490fdfea2646970667358221220b92ae1a4277422bfb161a0ab45382182236fda1d2bfecc6d1b2b49eea89c7d2664736f6c63430008140033",
  "devdoc": {
    "details": "A contract for managing token presales with tiered whitelisting and configurable parameters",
    "errors": {
      "OwnableInvalidOwner(address)": [
        {
          "details": "The owner is not a valid owner account. (eg. `address(0)`)"
        }
      ],
      "OwnableUnauthorizedAccount(address)": [
        {
          "details": "The caller account is not authorized to perform an operation."
        }
      ],
      "ReentrancyGuardReentrantCall()": [
        {
          "details": "Unauthorized reentrant call."
        }
      ]
    },
    "kind": "dev",
    "methods": {
      "addToTier1Whitelist(uint256,address[],uint256[])": {
        "details": "Add users to tier 1 whitelist",
        "params": {
          "_amounts": "Array of max deposit amounts for each user",
          "_presaleId": "ID of the presale",
          "_users": "Array of user addresses"
        }
      },
      "addToTier2Whitelist(uint256,address[],uint256[])": {
        "details": "Add users to tier 2 whitelist",
        "params": {
          "_amounts": "Array of max deposit amounts for each user",
          "_presaleId": "ID of the presale",
          "_users": "Array of user addresses"
        }
      },
      "calculateTokenAmount(uint256,uint256)": {
        "details": "Calculate tokens to receive for a given ETH amount",
        "params": {
          "_ethAmount": "Amount of ETH",
          "_presaleId": "ID of the presale"
        },
        "returns": {
          "_0": "Amount of tokens to receive"
        }
      },
      "createPresale(address,string,uint256,uint256,uint256,uint256,uint256,uint256,uint256,uint256,uint256,uint256)": {
        "details": "Create a new presale",
        "params": {
          "_endTime": "End time of the presale",
          "_maxDepositAmount": "Maximum deposit amount per user",
          "_minDepositAmount": "Minimum deposit amount per user",
          "_startTime": "Start time of the presale",
          "_tier1WhitelistEndTime": "When tier 1 whitelist period ends",
          "_tier2WhitelistEndTime": "When tier 2 whitelist period ends",
          "_tokenAddress": "Address of the token being sold",
          "_tokenPrice": "Price of the token in ETH (wei)",
          "_tokenSymbol": "Symbol of the token being sold",
          "_totalAllocation": "Total token allocation for the presale",
          "_totalRaiseGoal": "Total ETH to raise",
          "_valuation": "Project valuation in USD (scaled by 1e18)"
        }
      },
      "deposit(uint256)": {
        "details": "Deposit ETH to participate in a presale",
        "params": {
          "_presaleId": "ID of the presale"
        }
      },
      "getUserDeposit(uint256,address)": {
        "details": "Get user deposit amount",
        "params": {
          "_presaleId": "ID of the presale",
          "_user": "Address of the user"
        },
        "returns": {
          "_0": "User's deposit amount"
        }
      },
      "getUserWhitelistStatus(uint256,address)": {
        "details": "Get user whitelist status and amount",
        "params": {
          "_presaleId": "ID of the presale",
          "_user": "Address of the user"
        },
        "returns": {
          "tier1Amount": "Tier 1 whitelist amount",
          "tier2Amount": "Tier 2 whitelist amount"
        }
      },
      "owner()": {
        "details": "Returns the address of the current owner."
      },
      "recoverERC20(address,address)": {
        "details": "Emergency function to recover any ERC20 tokens sent to the contract by mistake",
        "params": {
          "_recipient": "Address to receive the tokens",
          "_tokenAddress": "Address of the token to recover"
        }
      },
      "renounceOwnership()": {
        "details": "Leaves the contract without owner. It will not be possible to call `onlyOwner` functions. Can only be called by the current owner. NOTE: Renouncing ownership will leave the contract without an owner, thereby disabling any functionality that is only available to the owner."
      },
      "setPresaleStatus(uint256,bool)": {
        "details": "Set presale active status",
        "params": {
          "_isActive": "Whether the presale is active",
          "_presaleId": "ID of the presale"
        }
      },
      "transferOwnership(address)": {
        "details": "Transfers ownership of the contract to a new account (`newOwner`). Can only be called by the current owner."
      },
      "withdrawFunds(uint256,address)": {
        "details": "Withdraw raised funds (for owner)",
        "params": {
          "_presaleId": "ID of the presale",
          "_recipient": "Address to receive the funds"
        }
      },
      "withdrawTokens(uint256)": {
        "details": "Withdraw tokens after presale ends (for users)",
        "params": {
          "_presaleId": "ID of the presale"
        }
      }
    },
    "title": "TokenPresale",
    "version": 1
  },
  "userdoc": {
    "kind": "user",
    "methods": {},
    "version": 1
  },
  "storageLayout": {
    "storage": [
      {
        "astId": 8,
        "contract": "contracts/TokenPresale.sol:TokenPresale",
        "label": "_owner",
        "offset": 0,
        "slot": "0",
        "type": "t_address"
      },
      {
        "astId": 996,
        "contract": "contracts/TokenPresale.sol:TokenPresale",
        "label": "_status",
        "offset": 0,
        "slot": "1",
        "type": "t_uint256"
      },
      {
        "astId": 4519,
        "contract": "contracts/TokenPresale.sol:TokenPresale",
        "label": "presales",
        "offset": 0,
        "slot": "2",
        "type": "t_mapping(t_uint256,t_struct(Presale)4514_storage)"
      },
      {
        "astId": 4525,
        "contract": "contracts/TokenPresale.sol:TokenPresale",
        "label": "userDeposits",
        "offset": 0,
        "slot": "3",
        "type": "t_mapping(t_uint256,t_mapping(t_address,t_uint256))"
      },
      {
        "astId": 4531,
        "contract": "contracts/TokenPresale.sol:TokenPresale",
        "label": "tier1Whitelist",
        "offset": 0,
        "slot": "4",
        "type": "t_mapping(t_uint256,t_mapping(t_address,t_uint256))"
      },
      {
        "astId": 4537,
        "contract": "contracts/TokenPresale.sol:TokenPresale",
        "label": "tier2Whitelist",
        "offset": 0,
        "slot": "5",
        "type": "t_mapping(t_uint256,t_mapping(t_address,t_uint256))"
      },
      {
        "astId": 4539,
        "contract": "contracts/TokenPresale.sol:TokenPresale",
        "label": "presaleCounter",
        "offset": 0,
        "slot": "6",
        "type": "t_uint256"
      }
    ],
    "types": {
      "t_address": {
        "encoding": "inplace",
        "label": "address",
        "numberOfBytes": "20"
      },
      "t_bool": {
        "encoding": "inplace",
        "label": "bool",
        "numberOfBytes": "1"
      },
      "t_mapping(t_address,t_uint256)": {
        "encoding": "mapping",
        "key": "t_address",
        "label": "mapping(address => uint256)",
        "numberOfBytes": "32",
        "value": "t_uint256"
      },
      "t_mapping(t_uint256,t_mapping(t_address,t_uint256))": {
        "encoding": "mapping",
        "key": "t_uint256",
        "label": "mapping(uint256 => mapping(address => uint256))",
        "numberOfBytes": "32",
        "value": "t_mapping(t_address,t_uint256)"
      },
      "t_mapping(t_uint256,t_struct(Presale)4514_storage)": {
        "encoding": "mapping",
        "key": "t_uint256",
        "label": "mapping(uint256 => struct TokenPresale.Presale)",
        "numberOfBytes": "32",
        "value": "t_struct(Presale)4514_storage"
      },
      "t_string_storage": {
        "encoding": "bytes",
        "label": "string",
        "numberOfBytes": "32"
      },
      "t_struct(Presale)4514_storage": {
        "encoding": "inplace",
        "label": "struct TokenPresale.Presale",
        "members": [
          {
            "astId": 4485,
            "contract": "contracts/TokenPresale.sol:TokenPresale",
            "label": "presaleId",
            "offset": 0,
            "slot": "0",
            "type": "t_uint256"
          },
          {
            "astId": 4487,
            "contract": "contracts/TokenPresale.sol:TokenPresale",
            "label": "tokenAddress",
            "offset": 0,
            "slot": "1",
            "type": "t_address"
          },
          {
            "astId": 4489,
            "contract": "contracts/TokenPresale.sol:TokenPresale",
            "label": "tokenSymbol",
            "offset": 0,
            "slot": "2",
            "type": "t_string_storage"
          },
          {
            "astId": 4491,
            "contract": "contracts/TokenPresale.sol:TokenPresale",
            "label": "tokenPrice",
            "offset": 0,
            "slot": "3",
            "type": "t_uint256"
          },
          {
            "astId": 4493,
            "contract": "contracts/TokenPresale.sol:TokenPresale",
            "label": "valuation",
            "offset": 0,
            "slot": "4",
            "type": "t_uint256"
          },
          {
            "astId": 4495,
            "contract": "contracts/TokenPresale.sol:TokenPresale",
            "label": "totalAllocation",
            "offset": 0,
            "slot": "5",
            "type": "t_uint256"
          },
          {
            "astId": 4497,
            "contract": "contracts/TokenPresale.sol:TokenPresale",
            "label": "startTime",
            "offset": 0,
            "slot": "6",
            "type": "t_uint256"
          },
          {
            "astId": 4499,
            "contract": "contracts/TokenPresale.sol:TokenPresale",
            "label": "endTime",
            "offset": 0,
            "slot": "7",
            "type": "t_uint256"
          },
          {
            "astId": 4501,
            "contract": "contracts/TokenPresale.sol:TokenPresale",
            "label": "minDepositAmount",
            "offset": 0,
            "slot": "8",
            "type": "t_uint256"
          },
          {
            "astId": 4503,
            "contract": "contracts/TokenPresale.sol:TokenPresale",
            "label": "maxDepositAmount",
            "offset": 0,
            "slot": "9",
            "type": "t_uint256"
          },
          {
            "astId": 4505,
            "contract": "contracts/TokenPresale.sol:TokenPresale",
            "label": "totalRaiseGoal",
            "offset": 0,
            "slot": "10",
            "type": "t_uint256"
          },
          {
            "astId": 4507,
            "contract": "contracts/TokenPresale.sol:TokenPresale",
            "label": "totalRaised",
            "offset": 0,
            "slot": "11",
            "type": "t_uint256"
          },
          {
            "astId": 4509,
            "contract": "contracts/TokenPresale.sol:TokenPresale",
            "label": "tier1WhitelistEndTime",
            "offset": 0,
            "slot": "12",
            "type": "t_uint256"
          },
          {
            "astId": 4511,
            "contract": "contracts/TokenPresale.sol:TokenPresale",
            "label": "tier2WhitelistEndTime",
            "offset": 0,
            "slot": "13",
            "type": "t_uint256"
          },
          {
            "astId": 4513,
            "contract": "contracts/TokenPresale.sol:TokenPresale",
            "label": "isActive",
            "offset": 0,
            "slot": "14",
            "type": "t_bool"
          }
        ],
        "numberOfBytes": "480"
      },
      "t_uint256": {
        "encoding": "inplace",
        "label": "uint256",
        "numberOfBytes": "32"
      }
    }
  }
}