{
  "address": "0x91cbFcd28fAE1940FE32AB6dB7A28649a8986F21",
  "abi": [
    {
      "inputs": [
        {
          "internalType": "address",
          "name": "governor",
          "type": "address"
        }
      ],
      "stateMutability": "nonpayable",
      "type": "constructor"
    },
    {
      "inputs": [],
      "name": "AccessControlBadConfirmation",
      "type": "error"
    },
    {
      "inputs": [
        {
          "internalType": "address",
          "name": "account",
          "type": "address"
        },
        {
          "internalType": "bytes32",
          "name": "neededRole",
          "type": "bytes32"
        }
      ],
      "name": "AccessControlUnauthorizedAccount",
      "type": "error"
    },
    {
      "anonymous": false,
      "inputs": [
        {
          "indexed": true,
          "internalType": "address",
          "name": "pool",
          "type": "address"
        },
        {
          "indexed": false,
          "internalType": "bool",
          "name": "allowed",
          "type": "bool"
        }
      ],
      "name": "PoolStatusChanged",
      "type": "event"
    },
    {
      "anonymous": false,
      "inputs": [
        {
          "indexed": true,
          "internalType": "bytes32",
          "name": "role",
          "type": "bytes32"
        },
        {
          "indexed": true,
          "internalType": "bytes32",
          "name": "previousAdminRole",
          "type": "bytes32"
        },
        {
          "indexed": true,
          "internalType": "bytes32",
          "name": "newAdminRole",
          "type": "bytes32"
        }
      ],
      "name": "RoleAdminChanged",
      "type": "event"
    },
    {
      "anonymous": false,
      "inputs": [
        {
          "indexed": true,
          "internalType": "bytes32",
          "name": "role",
          "type": "bytes32"
        },
        {
          "indexed": true,
          "internalType": "address",
          "name": "account",
          "type": "address"
        },
        {
          "indexed": true,
          "internalType": "address",
          "name": "sender",
          "type": "address"
        }
      ],
      "name": "RoleGranted",
      "type": "event"
    },
    {
      "anonymous": false,
      "inputs": [
        {
          "indexed": true,
          "internalType": "bytes32",
          "name": "role",
          "type": "bytes32"
        },
        {
          "indexed": true,
          "internalType": "address",
          "name": "account",
          "type": "address"
        },
        {
          "indexed": true,
          "internalType": "address",
          "name": "sender",
          "type": "address"
        }
      ],
      "name": "RoleRevoked",
      "type": "event"
    },
    {
      "inputs": [],
      "name": "DEFAULT_ADMIN_ROLE",
      "outputs": [
        {
          "internalType": "bytes32",
          "name": "",
          "type": "bytes32"
        }
      ],
      "stateMutability": "view",
      "type": "function"
    },
    {
      "inputs": [],
      "name": "GOVERNOR",
      "outputs": [
        {
          "internalType": "bytes32",
          "name": "",
          "type": "bytes32"
        }
      ],
      "stateMutability": "view",
      "type": "function"
    },
    {
      "inputs": [
        {
          "internalType": "address",
          "name": "pool",
          "type": "address"
        }
      ],
      "name": "getPoolKind",
      "outputs": [
        {
          "internalType": "enum WhitelistRegistry.PoolKind",
          "name": "",
          "type": "uint8"
        }
      ],
      "stateMutability": "view",
      "type": "function"
    },
    {
      "inputs": [
        {
          "internalType": "bytes32",
          "name": "role",
          "type": "bytes32"
        }
      ],
      "name": "getRoleAdmin",
      "outputs": [
        {
          "internalType": "bytes32",
          "name": "",
          "type": "bytes32"
        }
      ],
      "stateMutability": "view",
      "type": "function"
    },
    {
      "inputs": [],
      "name": "getWhitelistedPools",
      "outputs": [
        {
          "internalType": "address[]",
          "name": "",
          "type": "address[]"
        }
      ],
      "stateMutability": "view",
      "type": "function"
    },
    {
      "inputs": [
        {
          "internalType": "bytes32",
          "name": "role",
          "type": "bytes32"
        },
        {
          "internalType": "address",
          "name": "account",
          "type": "address"
        }
      ],
      "name": "grantRole",
      "outputs": [],
      "stateMutability": "nonpayable",
      "type": "function"
    },
    {
      "inputs": [
        {
          "internalType": "bytes32",
          "name": "role",
          "type": "bytes32"
        },
        {
          "internalType": "address",
          "name": "account",
          "type": "address"
        }
      ],
      "name": "hasRole",
      "outputs": [
        {
          "internalType": "bool",
          "name": "",
          "type": "bool"
        }
      ],
      "stateMutability": "view",
      "type": "function"
    },
    {
      "inputs": [
        {
          "internalType": "address",
          "name": "",
          "type": "address"
        }
      ],
      "name": "isWhitelisted",
      "outputs": [
        {
          "internalType": "bool",
          "name": "",
          "type": "bool"
        }
      ],
      "stateMutability": "view",
      "type": "function"
    },
    {
      "inputs": [
        {
          "internalType": "address",
          "name": "",
          "type": "address"
        }
      ],
      "name": "poolKind",
      "outputs": [
        {
          "internalType": "enum WhitelistRegistry.PoolKind",
          "name": "",
          "type": "uint8"
        }
      ],
      "stateMutability": "view",
      "type": "function"
    },
    {
      "inputs": [
        {
          "internalType": "bytes32",
          "name": "role",
          "type": "bytes32"
        },
        {
          "internalType": "address",
          "name": "callerConfirmation",
          "type": "address"
        }
      ],
      "name": "renounceRole",
      "outputs": [],
      "stateMutability": "nonpayable",
      "type": "function"
    },
    {
      "inputs": [
        {
          "internalType": "bytes32",
          "name": "role",
          "type": "bytes32"
        },
        {
          "internalType": "address",
          "name": "account",
          "type": "address"
        }
      ],
      "name": "revokeRole",
      "outputs": [],
      "stateMutability": "nonpayable",
      "type": "function"
    },
    {
      "inputs": [
        {
          "internalType": "address",
          "name": "pool",
          "type": "address"
        },
        {
          "internalType": "bool",
          "name": "allowed",
          "type": "bool"
        },
        {
          "internalType": "enum WhitelistRegistry.PoolKind",
          "name": "kind",
          "type": "uint8"
        }
      ],
      "name": "setPool",
      "outputs": [],
      "stateMutability": "nonpayable",
      "type": "function"
    },
    {
      "inputs": [
        {
          "internalType": "bytes4",
          "name": "interfaceId",
          "type": "bytes4"
        }
      ],
      "name": "supportsInterface",
      "outputs": [
        {
          "internalType": "bool",
          "name": "",
          "type": "bool"
        }
      ],
      "stateMutability": "view",
      "type": "function"
    }
  ],
  "transactionHash": "0x65cd7e9058443f4f59afa875cfd654e77d42bfb15afa83a7828b1f16f0c01932",
  "args": [
    "0x4cacfA4B61105852580BA184b6466FD9952654ce"
  ],
  "numDeployments": 3,
  "solcInputHash": "61fb38b9f972c45e970c52feba555caf",
  "bytecode": "0x60803461007257601f610a9b38819003918201601f19168301916001600160401b038311848410176100775780849260209460405283398101031261007257516001600160a01b0381168103610072578061005c6100629261008d565b5061010b565b506040516108cf90816101ac8239f35b600080fd5b634e487b7160e01b600052604160045260246000fd5b6001600160a01b031660008181527fad3228b676f7d3cd4284a5443f17f1962b36e491b30a40b2405849e597ba5fb5602052604081205490919060ff1661010757818052816020526040822081835260205260408220600160ff198254161790553391600080516020610a7b8339815191528180a4600190565b5090565b6001600160a01b031660008181527f633a52d7cd6d71cd4a4ff569daeb3cb23f4ff6acf4a4c3abafee9ef2178f778860205260408120549091907f1a6838efa4183e08fe3607359d1259272af9d4716f65e1a7b5921f78fd5a3c6a9060ff166101a657808352826020526040832082845260205260408320600160ff19825416179055600080516020610a7b833981519152339380a4600190565b50509056fe60806040908082526004908136101561001757600080fd5b600090813560e01c90816301ffc9a71461061457508063248a9ca3146105e95780632f2ff15d146105c057806336568abe1461057a57806338f66815146103145780633af32abf1461053c5780636dc0ae221461050157806389a301501461035a5780639128d0a41461031457806391d14854146102cd578063a217fddf146102ae578063d547741f1461026c5763fb13605d146100b457600080fd5b34610269578060031936011261026957808092600254935b848110610218575090601f916100e18461086b565b9386519484199485910116850185811067ffffffffffffffff8211176102055790610115918897969495985280845261086b565b93602096878401950136863783805b828210610173575050505083519485948186019282875251809352850193925b82811061015357505050500390f35b83516001600160a01b031685528695509381019392810192600101610144565b610182829996959798996107f9565b60018060a01b03809254600392831b1c1687526001885260ff8b882054166101bd575b5050906101b190610846565b90979695939497610124565b6101c6846107f9565b9054911b1c1687518210156101f257816101eb91886101b19460051b8b010152610846565b90386101a5565b634e487b7160e01b865260328552602486fd5b634e487b7160e01b845260418352602484fd5b610221816107f9565b905460039190911b1c6001600160a01b0316835260016020528583205460ff16610254575b61024f90610846565b6100cc565b9261026161024f91610846565b939050610246565b80fd5b5091346102aa57806003193601126102aa576102a691356102a16001610290610668565b9383875286602052862001546106c2565b610784565b5080f35b8280fd5b5082346102c957816003193601126102c95751908152602090f35b5080fd5b509190346102aa57816003193601126102aa578160209360ff926102ef610668565b903582528186528282206001600160a01b039091168252855220549151911615158152f35b5082346102c95760203660031901126102c9576103569160ff9082906001600160a01b03610340610683565b1681526003602052205416905191829182610699565b0390f35b5082346102c95760603660031901126102c957610375610683565b9060243590811515908183036104fd576044359360028510156104f9577f1a6838efa4183e08fe3607359d1259272af9d4716f65e1a7b5921f78fd5a3c6a93848752602094878652838820338952865260ff8489205416156104db5750806104bd575b61043e575b7f200e5013b1e7d404942300da3670a81a06231d29673d2ea5b80ee2015dad9f009495965060018060a01b0316948587526003845281872060ff199160ff838354169116179055600184528187209081541660ff841617905551908152a280f35b600254680100000000000000008110156104aa577f200e5013b1e7d404942300da3670a81a06231d29673d2ea5b80ee2015dad9f009596975080600161048792016002556107f9565b81549060031b9060018060a01b03808516831b921b1916179055869594506103dd565b634e487b7160e01b875260418852602487fd5b506001600160a01b0381168652600184528186205460ff16156103d8565b835163e2517d3f60e01b815233818b01526024810191909152604490fd5b8580fd5b8480fd5b5082346102c957816003193601126102c957602090517f1a6838efa4183e08fe3607359d1259272af9d4716f65e1a7b5921f78fd5a3c6a8152f35b5082346102c95760203660031901126102c95760209160ff9082906001600160a01b03610567610683565b1681526001855220541690519015158152f35b5082346102c957806003193601126102c957610594610668565b90336001600160a01b038316036105b157506102a6919235610784565b5163334bd91960e11b81528390fd5b5091346102aa57806003193601126102aa576102a691356105e46001610290610668565b610706565b509190346102aa5760203660031901126102aa57816020936001923581528085522001549051908152f35b905082346102aa5760203660031901126102aa573563ffffffff60e01b81168091036102aa5760209250637965db0b60e01b8114908115610657575b5015158152f35b6301ffc9a760e01b14905083610650565b602435906001600160a01b038216820361067e57565b600080fd5b600435906001600160a01b038216820361067e57565b9190602083019260028210156106ac5752565b634e487b7160e01b600052602160045260246000fd5b80600052600060205260406000203360005260205260ff60406000205416156106e85750565b6044906040519063e2517d3f60e01b82523360048301526024820152fd5b9060009180835282602052604083209160018060a01b03169182845260205260ff6040842054161560001461077f57808352826020526040832082845260205260408320600160ff198254161790557f2f8788117e7eff1d82e926ec794901d17c78024a50270940304540a733656f0d339380a4600190565b505090565b9060009180835282602052604083209160018060a01b03169182845260205260ff60408420541660001461077f5780835282602052604083208284526020526040832060ff1981541690557ff6391f5c32d9c69d2a47ea670b442974b53935d1edc7fd64eb21e047a839171b339380a4600190565b6002548110156108305760026000527f405787fa12a823e0f2b7631cc41b3ba8828b3321ca811111fa75cd3aa3bb5ace0190600090565b634e487b7160e01b600052603260045260246000fd5b60001981146108555760010190565b634e487b7160e01b600052601160045260246000fd5b67ffffffffffffffff81116108835760051b60200190565b634e487b7160e01b600052604160045260246000fdfea2646970667358221220a2aacef712f2101cceb90b082868cfd74485cc592ef33d53a48e7d8877a0ff1b64736f6c634300081400332f8788117e7eff1d82e926ec794901d17c78024a50270940304540a733656f0d",
  "devdoc": {
    "errors": {
      "AccessControlBadConfirmation()": [
        {
          "details": "The caller of a function is not the expected one. NOTE: Don't confuse with {AccessControlUnauthorizedAccount}."
        }
      ],
      "AccessControlUnauthorizedAccount(address,bytes32)": [
        {
          "details": "The `account` is missing a role."
        }
      ]
    },
    "events": {
      "RoleAdminChanged(bytes32,bytes32,bytes32)": {
        "details": "Emitted when `newAdminRole` is set as ``role``'s admin role, replacing `previousAdminRole` `DEFAULT_ADMIN_ROLE` is the starting admin for all roles, despite {RoleAdminChanged} not being emitted signaling this."
      },
      "RoleGranted(bytes32,address,address)": {
        "details": "Emitted when `account` is granted `role`. `sender` is the account that originated the contract call. This account bears the admin role (for the granted role). Expected in cases where the role was granted using the internal {AccessControl-_grantRole}."
      },
      "RoleRevoked(bytes32,address,address)": {
        "details": "Emitted when `account` is revoked `role`. `sender` is the account that originated the contract call:   - if using `revokeRole`, it is the admin role bearer   - if using `renounceRole`, it is the role bearer (i.e. `account`)"
      }
    },
    "kind": "dev",
    "methods": {
      "getRoleAdmin(bytes32)": {
        "details": "Returns the admin role that controls `role`. See {grantRole} and {revokeRole}. To change a role's admin, use {_setRoleAdmin}."
      },
      "grantRole(bytes32,address)": {
        "details": "Grants `role` to `account`. If `account` had not been already granted `role`, emits a {RoleGranted} event. Requirements: - the caller must have ``role``'s admin role. May emit a {RoleGranted} event."
      },
      "hasRole(bytes32,address)": {
        "details": "Returns `true` if `account` has been granted `role`."
      },
      "renounceRole(bytes32,address)": {
        "details": "Revokes `role` from the calling account. Roles are often managed via {grantRole} and {revokeRole}: this function's purpose is to provide a mechanism for accounts to lose their privileges if they are compromised (such as when a trusted device is misplaced). If the calling account had been revoked `role`, emits a {RoleRevoked} event. Requirements: - the caller must be `callerConfirmation`. May emit a {RoleRevoked} event."
      },
      "revokeRole(bytes32,address)": {
        "details": "Revokes `role` from `account`. If `account` had been granted `role`, emits a {RoleRevoked} event. Requirements: - the caller must have ``role``'s admin role. May emit a {RoleRevoked} event."
      },
      "supportsInterface(bytes4)": {
        "details": "See {IERC165-supportsInterface}."
      }
    },
    "version": 1
  },
  "userdoc": {
    "kind": "user",
    "methods": {},
    "version": 1
  },
  "storageLayout": {
    "storage": [
      {
        "astId": 26,
        "contract": "contracts/WhitelistRegistry.sol:WhitelistRegistry",
        "label": "_roles",
        "offset": 0,
        "slot": "0",
        "type": "t_mapping(t_bytes32,t_struct(RoleData)21_storage)"
      },
      {
        "astId": 6520,
        "contract": "contracts/WhitelistRegistry.sol:WhitelistRegistry",
        "label": "isWhitelisted",
        "offset": 0,
        "slot": "1",
        "type": "t_mapping(t_address,t_bool)"
      },
      {
        "astId": 6548,
        "contract": "contracts/WhitelistRegistry.sol:WhitelistRegistry",
        "label": "whitelistedPoolsArray",
        "offset": 0,
        "slot": "2",
        "type": "t_array(t_address)dyn_storage"
      },
      {
        "astId": 6553,
        "contract": "contracts/WhitelistRegistry.sol:WhitelistRegistry",
        "label": "poolKind",
        "offset": 0,
        "slot": "3",
        "type": "t_mapping(t_address,t_enum(PoolKind)6545)"
      }
    ],
    "types": {
      "t_address": {
        "encoding": "inplace",
        "label": "address",
        "numberOfBytes": "20"
      },
      "t_array(t_address)dyn_storage": {
        "base": "t_address",
        "encoding": "dynamic_array",
        "label": "address[]",
        "numberOfBytes": "32"
      },
      "t_bool": {
        "encoding": "inplace",
        "label": "bool",
        "numberOfBytes": "1"
      },
      "t_bytes32": {
        "encoding": "inplace",
        "label": "bytes32",
        "numberOfBytes": "32"
      },
      "t_enum(PoolKind)6545": {
        "encoding": "inplace",
        "label": "enum WhitelistRegistry.PoolKind",
        "numberOfBytes": "1"
      },
      "t_mapping(t_address,t_bool)": {
        "encoding": "mapping",
        "key": "t_address",
        "label": "mapping(address => bool)",
        "numberOfBytes": "32",
        "value": "t_bool"
      },
      "t_mapping(t_address,t_enum(PoolKind)6545)": {
        "encoding": "mapping",
        "key": "t_address",
        "label": "mapping(address => enum WhitelistRegistry.PoolKind)",
        "numberOfBytes": "32",
        "value": "t_enum(PoolKind)6545"
      },
      "t_mapping(t_bytes32,t_struct(RoleData)21_storage)": {
        "encoding": "mapping",
        "key": "t_bytes32",
        "label": "mapping(bytes32 => struct AccessControl.RoleData)",
        "numberOfBytes": "32",
        "value": "t_struct(RoleData)21_storage"
      },
      "t_struct(RoleData)21_storage": {
        "encoding": "inplace",
        "label": "struct AccessControl.RoleData",
        "members": [
          {
            "astId": 18,
            "contract": "contracts/WhitelistRegistry.sol:WhitelistRegistry",
            "label": "hasRole",
            "offset": 0,
            "slot": "0",
            "type": "t_mapping(t_address,t_bool)"
          },
          {
            "astId": 20,
            "contract": "contracts/WhitelistRegistry.sol:WhitelistRegistry",
            "label": "adminRole",
            "offset": 0,
            "slot": "1",
            "type": "t_bytes32"
          }
        ],
        "numberOfBytes": "64"
      }
    }
  }
}