{
  "address": "0x259Ae78e99405393bc398EeC9fc6d00c5b1694a9",
  "abi": [
    {
      "inputs": [
        {
          "internalType": "contract IERC20",
          "name": "_asset",
          "type": "address"
        },
        {
          "internalType": "string",
          "name": "name_",
          "type": "string"
        },
        {
          "internalType": "string",
          "name": "symbol_",
          "type": "string"
        },
        {
          "internalType": "contract WhitelistRegistry",
          "name": "_registry",
          "type": "address"
        },
        {
          "internalType": "address",
          "name": "admin",
          "type": "address"
        }
      ],
      "stateMutability": "nonpayable",
      "type": "constructor"
    },
    {
      "inputs": [],
      "name": "AccessControlBadConfirmation",
      "type": "error"
    },
    {
      "inputs": [
        {
          "internalType": "address",
          "name": "account",
          "type": "address"
        },
        {
          "internalType": "bytes32",
          "name": "neededRole",
          "type": "bytes32"
        }
      ],
      "name": "AccessControlUnauthorizedAccount",
      "type": "error"
    },
    {
      "inputs": [
        {
          "internalType": "address",
          "name": "spender",
          "type": "address"
        },
        {
          "internalType": "uint256",
          "name": "allowance",
          "type": "uint256"
        },
        {
          "internalType": "uint256",
          "name": "needed",
          "type": "uint256"
        }
      ],
      "name": "ERC20InsufficientAllowance",
      "type": "error"
    },
    {
      "inputs": [
        {
          "internalType": "address",
          "name": "sender",
          "type": "address"
        },
        {
          "internalType": "uint256",
          "name": "balance",
          "type": "uint256"
        },
        {
          "internalType": "uint256",
          "name": "needed",
          "type": "uint256"
        }
      ],
      "name": "ERC20InsufficientBalance",
      "type": "error"
    },
    {
      "inputs": [
        {
          "internalType": "address",
          "name": "approver",
          "type": "address"
        }
      ],
      "name": "ERC20InvalidApprover",
      "type": "error"
    },
    {
      "inputs": [
        {
          "internalType": "address",
          "name": "receiver",
          "type": "address"
        }
      ],
      "name": "ERC20InvalidReceiver",
      "type": "error"
    },
    {
      "inputs": [
        {
          "internalType": "address",
          "name": "sender",
          "type": "address"
        }
      ],
      "name": "ERC20InvalidSender",
      "type": "error"
    },
    {
      "inputs": [
        {
          "internalType": "address",
          "name": "spender",
          "type": "address"
        }
      ],
      "name": "ERC20InvalidSpender",
      "type": "error"
    },
    {
      "inputs": [
        {
          "internalType": "address",
          "name": "receiver",
          "type": "address"
        },
        {
          "internalType": "uint256",
          "name": "assets",
          "type": "uint256"
        },
        {
          "internalType": "uint256",
          "name": "max",
          "type": "uint256"
        }
      ],
      "name": "ERC4626ExceededMaxDeposit",
      "type": "error"
    },
    {
      "inputs": [
        {
          "internalType": "address",
          "name": "receiver",
          "type": "address"
        },
        {
          "internalType": "uint256",
          "name": "shares",
          "type": "uint256"
        },
        {
          "internalType": "uint256",
          "name": "max",
          "type": "uint256"
        }
      ],
      "name": "ERC4626ExceededMaxMint",
      "type": "error"
    },
    {
      "inputs": [
        {
          "internalType": "address",
          "name": "owner",
          "type": "address"
        },
        {
          "internalType": "uint256",
          "name": "shares",
          "type": "uint256"
        },
        {
          "internalType": "uint256",
          "name": "max",
          "type": "uint256"
        }
      ],
      "name": "ERC4626ExceededMaxRedeem",
      "type": "error"
    },
    {
      "inputs": [
        {
          "internalType": "address",
          "name": "owner",
          "type": "address"
        },
        {
          "internalType": "uint256",
          "name": "assets",
          "type": "uint256"
        },
        {
          "internalType": "uint256",
          "name": "max",
          "type": "uint256"
        }
      ],
      "name": "ERC4626ExceededMaxWithdraw",
      "type": "error"
    },
    {
      "inputs": [],
      "name": "ReentrancyGuardReentrantCall",
      "type": "error"
    },
    {
      "inputs": [
        {
          "internalType": "address",
          "name": "token",
          "type": "address"
        }
      ],
      "name": "SafeERC20FailedOperation",
      "type": "error"
    },
    {
      "anonymous": false,
      "inputs": [
        {
          "indexed": true,
          "internalType": "address",
          "name": "owner",
          "type": "address"
        },
        {
          "indexed": true,
          "internalType": "address",
          "name": "spender",
          "type": "address"
        },
        {
          "indexed": false,
          "internalType": "uint256",
          "name": "value",
          "type": "uint256"
        }
      ],
      "name": "Approval",
      "type": "event"
    },
    {
      "anonymous": false,
      "inputs": [
        {
          "indexed": true,
          "internalType": "address",
          "name": "sender",
          "type": "address"
        },
        {
          "indexed": true,
          "internalType": "address",
          "name": "owner",
          "type": "address"
        },
        {
          "indexed": false,
          "internalType": "uint256",
          "name": "assets",
          "type": "uint256"
        },
        {
          "indexed": false,
          "internalType": "uint256",
          "name": "shares",
          "type": "uint256"
        }
      ],
      "name": "Deposit",
      "type": "event"
    },
    {
      "anonymous": false,
      "inputs": [
        {
          "indexed": true,
          "internalType": "address",
          "name": "user",
          "type": "address"
        },
        {
          "indexed": true,
          "internalType": "address",
          "name": "receiver",
          "type": "address"
        },
        {
          "indexed": false,
          "internalType": "uint256",
          "name": "assets",
          "type": "uint256"
        },
        {
          "indexed": false,
          "internalType": "uint256",
          "name": "shares",
          "type": "uint256"
        }
      ],
      "name": "DepositFulfilled",
      "type": "event"
    },
    {
      "anonymous": false,
      "inputs": [
        {
          "indexed": true,
          "internalType": "address",
          "name": "user",
          "type": "address"
        },
        {
          "indexed": true,
          "internalType": "address",
          "name": "receiver",
          "type": "address"
        },
        {
          "indexed": false,
          "internalType": "uint256",
          "name": "assets",
          "type": "uint256"
        }
      ],
      "name": "DepositRequested",
      "type": "event"
    },
    {
      "anonymous": false,
      "inputs": [
        {
          "indexed": true,
          "internalType": "address",
          "name": "controller",
          "type": "address"
        },
        {
          "indexed": true,
          "internalType": "address",
          "name": "operator",
          "type": "address"
        },
        {
          "indexed": false,
          "internalType": "bool",
          "name": "approved",
          "type": "bool"
        }
      ],
      "name": "OperatorSet",
      "type": "event"
    },
    {
      "anonymous": false,
      "inputs": [
        {
          "indexed": true,
          "internalType": "address",
          "name": "recipient",
          "type": "address"
        },
        {
          "indexed": false,
          "internalType": "uint256",
          "name": "feeBps",
          "type": "uint256"
        }
      ],
      "name": "PerformanceFeeSet",
      "type": "event"
    },
    {
      "anonymous": false,
      "inputs": [
        {
          "indexed": true,
          "internalType": "address",
          "name": "pool",
          "type": "address"
        },
        {
          "indexed": false,
          "internalType": "uint256",
          "name": "amount",
          "type": "uint256"
        }
      ],
      "name": "PoolSupplied",
      "type": "event"
    },
    {
      "anonymous": false,
      "inputs": [
        {
          "indexed": true,
          "internalType": "address",
          "name": "pool",
          "type": "address"
        },
        {
          "indexed": false,
          "internalType": "uint256",
          "name": "requested",
          "type": "uint256"
        },
        {
          "indexed": false,
          "internalType": "uint256",
          "name": "received",
          "type": "uint256"
        }
      ],
      "name": "PoolWithdrawn",
      "type": "event"
    },
    {
      "anonymous": false,
      "inputs": [
        {
          "indexed": true,
          "internalType": "uint256",
          "name": "requestId",
          "type": "uint256"
        },
        {
          "indexed": true,
          "internalType": "address",
          "name": "controller",
          "type": "address"
        },
        {
          "indexed": true,
          "internalType": "address",
          "name": "owner",
          "type": "address"
        },
        {
          "indexed": false,
          "internalType": "uint256",
          "name": "shares",
          "type": "uint256"
        }
      ],
      "name": "RedeemRequested",
      "type": "event"
    },
    {
      "anonymous": false,
      "inputs": [
        {
          "indexed": true,
          "internalType": "bytes32",
          "name": "role",
          "type": "bytes32"
        },
        {
          "indexed": true,
          "internalType": "bytes32",
          "name": "previousAdminRole",
          "type": "bytes32"
        },
        {
          "indexed": true,
          "internalType": "bytes32",
          "name": "newAdminRole",
          "type": "bytes32"
        }
      ],
      "name": "RoleAdminChanged",
      "type": "event"
    },
    {
      "anonymous": false,
      "inputs": [
        {
          "indexed": true,
          "internalType": "bytes32",
          "name": "role",
          "type": "bytes32"
        },
        {
          "indexed": true,
          "internalType": "address",
          "name": "account",
          "type": "address"
        },
        {
          "indexed": true,
          "internalType": "address",
          "name": "sender",
          "type": "address"
        }
      ],
      "name": "RoleGranted",
      "type": "event"
    },
    {
      "anonymous": false,
      "inputs": [
        {
          "indexed": true,
          "internalType": "bytes32",
          "name": "role",
          "type": "bytes32"
        },
        {
          "indexed": true,
          "internalType": "address",
          "name": "account",
          "type": "address"
        },
        {
          "indexed": true,
          "internalType": "address",
          "name": "sender",
          "type": "address"
        }
      ],
      "name": "RoleRevoked",
      "type": "event"
    },
    {
      "anonymous": false,
      "inputs": [
        {
          "indexed": true,
          "internalType": "address",
          "name": "from",
          "type": "address"
        },
        {
          "indexed": true,
          "internalType": "address",
          "name": "to",
          "type": "address"
        },
        {
          "indexed": false,
          "internalType": "uint256",
          "name": "value",
          "type": "uint256"
        }
      ],
      "name": "Transfer",
      "type": "event"
    },
    {
      "anonymous": false,
      "inputs": [
        {
          "indexed": true,
          "internalType": "address",
          "name": "sender",
          "type": "address"
        },
        {
          "indexed": true,
          "internalType": "address",
          "name": "receiver",
          "type": "address"
        },
        {
          "indexed": true,
          "internalType": "address",
          "name": "owner",
          "type": "address"
        },
        {
          "indexed": false,
          "internalType": "uint256",
          "name": "assets",
          "type": "uint256"
        },
        {
          "indexed": false,
          "internalType": "uint256",
          "name": "shares",
          "type": "uint256"
        }
      ],
      "name": "Withdraw",
      "type": "event"
    },
    {
      "anonymous": false,
      "inputs": [
        {
          "indexed": true,
          "internalType": "address",
          "name": "controller",
          "type": "address"
        },
        {
          "indexed": true,
          "internalType": "address",
          "name": "receiver",
          "type": "address"
        },
        {
          "indexed": false,
          "internalType": "uint256",
          "name": "shares",
          "type": "uint256"
        },
        {
          "indexed": false,
          "internalType": "uint256",
          "name": "assets",
          "type": "uint256"
        }
      ],
      "name": "WithdrawalFulfilled",
      "type": "event"
    },
    {
      "inputs": [],
      "name": "DEFAULT_ADMIN_ROLE",
      "outputs": [
        {
          "internalType": "bytes32",
          "name": "",
          "type": "bytes32"
        }
      ],
      "stateMutability": "view",
      "type": "function"
    },
    {
      "inputs": [],
      "name": "EXECUTOR",
      "outputs": [
        {
          "internalType": "bytes32",
          "name": "",
          "type": "bytes32"
        }
      ],
      "stateMutability": "view",
      "type": "function"
    },
    {
      "inputs": [
        {
          "internalType": "address",
          "name": "owner",
          "type": "address"
        },
        {
          "internalType": "address",
          "name": "spender",
          "type": "address"
        }
      ],
      "name": "allowance",
      "outputs": [
        {
          "internalType": "uint256",
          "name": "",
          "type": "uint256"
        }
      ],
      "stateMutability": "view",
      "type": "function"
    },
    {
      "inputs": [
        {
          "internalType": "address",
          "name": "spender",
          "type": "address"
        },
        {
          "internalType": "uint256",
          "name": "value",
          "type": "uint256"
        }
      ],
      "name": "approve",
      "outputs": [
        {
          "internalType": "bool",
          "name": "",
          "type": "bool"
        }
      ],
      "stateMutability": "nonpayable",
      "type": "function"
    },
    {
      "inputs": [],
      "name": "asset",
      "outputs": [
        {
          "internalType": "address",
          "name": "",
          "type": "address"
        }
      ],
      "stateMutability": "view",
      "type": "function"
    },
    {
      "inputs": [
        {
          "internalType": "address",
          "name": "account",
          "type": "address"
        }
      ],
      "name": "balanceOf",
      "outputs": [
        {
          "internalType": "uint256",
          "name": "",
          "type": "uint256"
        }
      ],
      "stateMutability": "view",
      "type": "function"
    },
    {
      "inputs": [
        {
          "internalType": "uint256",
          "name": "shares",
          "type": "uint256"
        }
      ],
      "name": "convertToAssets",
      "outputs": [
        {
          "internalType": "uint256",
          "name": "",
          "type": "uint256"
        }
      ],
      "stateMutability": "view",
      "type": "function"
    },
    {
      "inputs": [
        {
          "internalType": "uint256",
          "name": "assets",
          "type": "uint256"
        }
      ],
      "name": "convertToShares",
      "outputs": [
        {
          "internalType": "uint256",
          "name": "",
          "type": "uint256"
        }
      ],
      "stateMutability": "view",
      "type": "function"
    },
    {
      "inputs": [],
      "name": "decimals",
      "outputs": [
        {
          "internalType": "uint8",
          "name": "",
          "type": "uint8"
        }
      ],
      "stateMutability": "view",
      "type": "function"
    },
    {
      "inputs": [
        {
          "internalType": "uint256",
          "name": "",
          "type": "uint256"
        },
        {
          "internalType": "address",
          "name": "",
          "type": "address"
        }
      ],
      "name": "deposit",
      "outputs": [
        {
          "internalType": "uint256",
          "name": "",
          "type": "uint256"
        }
      ],
      "stateMutability": "pure",
      "type": "function"
    },
    {
      "inputs": [
        {
          "internalType": "uint256",
          "name": "index",
          "type": "uint256"
        }
      ],
      "name": "depositQueueAt",
      "outputs": [
        {
          "internalType": "address",
          "name": "depositor",
          "type": "address"
        },
        {
          "internalType": "uint256",
          "name": "assets",
          "type": "uint256"
        }
      ],
      "stateMutability": "view",
      "type": "function"
    },
    {
      "inputs": [],
      "name": "depositQueueLength",
      "outputs": [
        {
          "internalType": "uint256",
          "name": "",
          "type": "uint256"
        }
      ],
      "stateMutability": "view",
      "type": "function"
    },
    {
      "inputs": [
        {
          "internalType": "address",
          "name": "",
          "type": "address"
        }
      ],
      "name": "depositRequests",
      "outputs": [
        {
          "internalType": "uint256",
          "name": "assets",
          "type": "uint256"
        },
        {
          "internalType": "address",
          "name": "receiver",
          "type": "address"
        },
        {
          "internalType": "bool",
          "name": "exists",
          "type": "bool"
        }
      ],
      "stateMutability": "view",
      "type": "function"
    },
    {
      "inputs": [
        {
          "internalType": "address",
          "name": "",
          "type": "address"
        }
      ],
      "name": "depositorIndex",
      "outputs": [
        {
          "internalType": "uint256",
          "name": "",
          "type": "uint256"
        }
      ],
      "stateMutability": "view",
      "type": "function"
    },
    {
      "inputs": [],
      "name": "feeRecipient",
      "outputs": [
        {
          "internalType": "address",
          "name": "",
          "type": "address"
        }
      ],
      "stateMutability": "view",
      "type": "function"
    },
    {
      "inputs": [
        {
          "internalType": "uint256",
          "name": "batchSize",
          "type": "uint256"
        },
        {
          "internalType": "address",
          "name": "bestPool",
          "type": "address"
        }
      ],
      "name": "fulfillNextDeposits",
      "outputs": [],
      "stateMutability": "nonpayable",
      "type": "function"
    },
    {
      "inputs": [
        {
          "internalType": "uint256",
          "name": "batchSize",
          "type": "uint256"
        }
      ],
      "name": "fulfillNextWithdrawals",
      "outputs": [],
      "stateMutability": "nonpayable",
      "type": "function"
    },
    {
      "inputs": [
        {
          "internalType": "address",
          "name": "asset",
          "type": "address"
        },
        {
          "internalType": "uint256",
          "name": "maxPriceAge",
          "type": "uint256"
        }
      ],
      "name": "getAssetPriceUsd",
      "outputs": [
        {
          "internalType": "uint256",
          "name": "priceUsd_1e18",
          "type": "uint256"
        },
        {
          "internalType": "uint64",
          "name": "publishTime",
          "type": "uint64"
        },
        {
          "internalType": "uint256",
          "name": "confidence_1e18",
          "type": "uint256"
        }
      ],
      "stateMutability": "view",
      "type": "function"
    },
    {
      "inputs": [
        {
          "internalType": "bytes32",
          "name": "role",
          "type": "bytes32"
        }
      ],
      "name": "getRoleAdmin",
      "outputs": [
        {
          "internalType": "bytes32",
          "name": "",
          "type": "bytes32"
        }
      ],
      "stateMutability": "view",
      "type": "function"
    },
    {
      "inputs": [
        {
          "internalType": "bytes32",
          "name": "role",
          "type": "bytes32"
        },
        {
          "internalType": "address",
          "name": "account",
          "type": "address"
        }
      ],
      "name": "grantRole",
      "outputs": [],
      "stateMutability": "nonpayable",
      "type": "function"
    },
    {
      "inputs": [
        {
          "internalType": "address",
          "name": "asset",
          "type": "address"
        }
      ],
      "name": "hasAssetPriceId",
      "outputs": [
        {
          "internalType": "bool",
          "name": "",
          "type": "bool"
        }
      ],
      "stateMutability": "view",
      "type": "function"
    },
    {
      "inputs": [
        {
          "internalType": "address",
          "name": "",
          "type": "address"
        }
      ],
      "name": "hasPendingDeposit",
      "outputs": [
        {
          "internalType": "bool",
          "name": "",
          "type": "bool"
        }
      ],
      "stateMutability": "view",
      "type": "function"
    },
    {
      "inputs": [
        {
          "internalType": "address",
          "name": "",
          "type": "address"
        }
      ],
      "name": "hasPendingWithdrawal",
      "outputs": [
        {
          "internalType": "bool",
          "name": "",
          "type": "bool"
        }
      ],
      "stateMutability": "view",
      "type": "function"
    },
    {
      "inputs": [
        {
          "internalType": "bytes32",
          "name": "role",
          "type": "bytes32"
        },
        {
          "internalType": "address",
          "name": "account",
          "type": "address"
        }
      ],
      "name": "hasRole",
      "outputs": [
        {
          "internalType": "bool",
          "name": "",
          "type": "bool"
        }
      ],
      "stateMutability": "view",
      "type": "function"
    },
    {
      "inputs": [
        {
          "internalType": "address",
          "name": "",
          "type": "address"
        },
        {
          "internalType": "address",
          "name": "",
          "type": "address"
        }
      ],
      "name": "isOperator",
      "outputs": [
        {
          "internalType": "bool",
          "name": "",
          "type": "bool"
        }
      ],
      "stateMutability": "view",
      "type": "function"
    },
    {
      "inputs": [
        {
          "internalType": "address",
          "name": "",
          "type": "address"
        },
        {
          "internalType": "address",
          "name": "",
          "type": "address"
        }
      ],
      "name": "isOperator7540",
      "outputs": [
        {
          "internalType": "bool",
          "name": "",
          "type": "bool"
        }
      ],
      "stateMutability": "view",
      "type": "function"
    },
    {
      "inputs": [
        {
          "internalType": "address",
          "name": "",
          "type": "address"
        }
      ],
      "name": "maxDeposit",
      "outputs": [
        {
          "internalType": "uint256",
          "name": "",
          "type": "uint256"
        }
      ],
      "stateMutability": "view",
      "type": "function"
    },
    {
      "inputs": [
        {
          "internalType": "address",
          "name": "",
          "type": "address"
        }
      ],
      "name": "maxMint",
      "outputs": [
        {
          "internalType": "uint256",
          "name": "",
          "type": "uint256"
        }
      ],
      "stateMutability": "view",
      "type": "function"
    },
    {
      "inputs": [
        {
          "internalType": "address",
          "name": "owner",
          "type": "address"
        }
      ],
      "name": "maxRedeem",
      "outputs": [
        {
          "internalType": "uint256",
          "name": "",
          "type": "uint256"
        }
      ],
      "stateMutability": "view",
      "type": "function"
    },
    {
      "inputs": [
        {
          "internalType": "address",
          "name": "owner",
          "type": "address"
        }
      ],
      "name": "maxWithdraw",
      "outputs": [
        {
          "internalType": "uint256",
          "name": "",
          "type": "uint256"
        }
      ],
      "stateMutability": "view",
      "type": "function"
    },
    {
      "inputs": [
        {
          "internalType": "uint256",
          "name": "shares",
          "type": "uint256"
        },
        {
          "internalType": "address",
          "name": "receiver",
          "type": "address"
        }
      ],
      "name": "mint",
      "outputs": [
        {
          "internalType": "uint256",
          "name": "",
          "type": "uint256"
        }
      ],
      "stateMutability": "nonpayable",
      "type": "function"
    },
    {
      "inputs": [],
      "name": "name",
      "outputs": [
        {
          "internalType": "string",
          "name": "",
          "type": "string"
        }
      ],
      "stateMutability": "view",
      "type": "function"
    },
    {
      "inputs": [],
      "name": "pendingDepositAssets",
      "outputs": [
        {
          "internalType": "uint256",
          "name": "",
          "type": "uint256"
        }
      ],
      "stateMutability": "view",
      "type": "function"
    },
    {
      "inputs": [
        {
          "internalType": "uint256",
          "name": "",
          "type": "uint256"
        }
      ],
      "name": "pendingDepositors",
      "outputs": [
        {
          "internalType": "address",
          "name": "",
          "type": "address"
        }
      ],
      "stateMutability": "view",
      "type": "function"
    },
    {
      "inputs": [
        {
          "internalType": "uint256",
          "name": "",
          "type": "uint256"
        }
      ],
      "name": "pendingWithdrawers",
      "outputs": [
        {
          "internalType": "address",
          "name": "",
          "type": "address"
        }
      ],
      "stateMutability": "view",
      "type": "function"
    },
    {
      "inputs": [],
      "name": "performanceFeeBps",
      "outputs": [
        {
          "internalType": "uint256",
          "name": "",
          "type": "uint256"
        }
      ],
      "stateMutability": "view",
      "type": "function"
    },
    {
      "inputs": [
        {
          "internalType": "address",
          "name": "",
          "type": "address"
        }
      ],
      "name": "poolPrincipal",
      "outputs": [
        {
          "internalType": "uint256",
          "name": "",
          "type": "uint256"
        }
      ],
      "stateMutability": "view",
      "type": "function"
    },
    {
      "inputs": [
        {
          "internalType": "uint256",
          "name": "assets",
          "type": "uint256"
        }
      ],
      "name": "previewDeposit",
      "outputs": [
        {
          "internalType": "uint256",
          "name": "",
          "type": "uint256"
        }
      ],
      "stateMutability": "view",
      "type": "function"
    },
    {
      "inputs": [
        {
          "internalType": "uint256",
          "name": "shares",
          "type": "uint256"
        }
      ],
      "name": "previewMint",
      "outputs": [
        {
          "internalType": "uint256",
          "name": "",
          "type": "uint256"
        }
      ],
      "stateMutability": "view",
      "type": "function"
    },
    {
      "inputs": [
        {
          "internalType": "uint256",
          "name": "",
          "type": "uint256"
        }
      ],
      "name": "previewRedeem",
      "outputs": [
        {
          "internalType": "uint256",
          "name": "",
          "type": "uint256"
        }
      ],
      "stateMutability": "pure",
      "type": "function"
    },
    {
      "inputs": [
        {
          "internalType": "uint256",
          "name": "",
          "type": "uint256"
        }
      ],
      "name": "previewWithdraw",
      "outputs": [
        {
          "internalType": "uint256",
          "name": "",
          "type": "uint256"
        }
      ],
      "stateMutability": "pure",
      "type": "function"
    },
    {
      "inputs": [
        {
          "internalType": "address",
          "name": "",
          "type": "address"
        }
      ],
      "name": "priceIdForAsset",
      "outputs": [
        {
          "internalType": "bytes32",
          "name": "",
          "type": "bytes32"
        }
      ],
      "stateMutability": "view",
      "type": "function"
    },
    {
      "inputs": [],
      "name": "pyth",
      "outputs": [
        {
          "internalType": "contract IPyth",
          "name": "",
          "type": "address"
        }
      ],
      "stateMutability": "view",
      "type": "function"
    },
    {
      "inputs": [
        {
          "internalType": "uint256",
          "name": "shares",
          "type": "uint256"
        },
        {
          "internalType": "address",
          "name": "receiver",
          "type": "address"
        },
        {
          "internalType": "address",
          "name": "owner",
          "type": "address"
        }
      ],
      "name": "redeem",
      "outputs": [
        {
          "internalType": "uint256",
          "name": "",
          "type": "uint256"
        }
      ],
      "stateMutability": "nonpayable",
      "type": "function"
    },
    {
      "inputs": [
        {
          "internalType": "uint256",
          "name": "index",
          "type": "uint256"
        }
      ],
      "name": "redeemQueueAt",
      "outputs": [
        {
          "internalType": "address",
          "name": "controller",
          "type": "address"
        },
        {
          "internalType": "uint256",
          "name": "shares",
          "type": "uint256"
        }
      ],
      "stateMutability": "view",
      "type": "function"
    },
    {
      "inputs": [],
      "name": "redeemQueueLength",
      "outputs": [
        {
          "internalType": "uint256",
          "name": "",
          "type": "uint256"
        }
      ],
      "stateMutability": "view",
      "type": "function"
    },
    {
      "inputs": [],
      "name": "registry",
      "outputs": [
        {
          "internalType": "contract WhitelistRegistry",
          "name": "",
          "type": "address"
        }
      ],
      "stateMutability": "view",
      "type": "function"
    },
    {
      "inputs": [
        {
          "internalType": "bytes32",
          "name": "role",
          "type": "bytes32"
        },
        {
          "internalType": "address",
          "name": "callerConfirmation",
          "type": "address"
        }
      ],
      "name": "renounceRole",
      "outputs": [],
      "stateMutability": "nonpayable",
      "type": "function"
    },
    {
      "inputs": [
        {
          "internalType": "uint256",
          "name": "assets",
          "type": "uint256"
        },
        {
          "internalType": "address",
          "name": "receiver",
          "type": "address"
        }
      ],
      "name": "requestDeposit",
      "outputs": [],
      "stateMutability": "nonpayable",
      "type": "function"
    },
    {
      "inputs": [
        {
          "internalType": "uint256",
          "name": "shares",
          "type": "uint256"
        },
        {
          "internalType": "address",
          "name": "controller",
          "type": "address"
        },
        {
          "internalType": "address",
          "name": "owner",
          "type": "address"
        }
      ],
      "name": "requestRedeem",
      "outputs": [
        {
          "internalType": "uint256",
          "name": "",
          "type": "uint256"
        }
      ],
      "stateMutability": "nonpayable",
      "type": "function"
    },
    {
      "inputs": [
        {
          "internalType": "bytes32",
          "name": "role",
          "type": "bytes32"
        },
        {
          "internalType": "address",
          "name": "account",
          "type": "address"
        }
      ],
      "name": "revokeRole",
      "outputs": [],
      "stateMutability": "nonpayable",
      "type": "function"
    },
    {
      "inputs": [
        {
          "internalType": "address",
          "name": "_feeRecipient",
          "type": "address"
        }
      ],
      "name": "setFeeRecipient",
      "outputs": [],
      "stateMutability": "nonpayable",
      "type": "function"
    },
    {
      "inputs": [
        {
          "internalType": "address",
          "name": "operator",
          "type": "address"
        },
        {
          "internalType": "bool",
          "name": "approved",
          "type": "bool"
        }
      ],
      "name": "setOperator",
      "outputs": [],
      "stateMutability": "nonpayable",
      "type": "function"
    },
    {
      "inputs": [
        {
          "internalType": "address",
          "name": "recipient",
          "type": "address"
        },
        {
          "internalType": "uint256",
          "name": "feeBps",
          "type": "uint256"
        }
      ],
      "name": "setPerformanceFee",
      "outputs": [],
      "stateMutability": "nonpayable",
      "type": "function"
    },
    {
      "inputs": [
        {
          "internalType": "address",
          "name": "asset",
          "type": "address"
        },
        {
          "internalType": "bytes32",
          "name": "priceId",
          "type": "bytes32"
        }
      ],
      "name": "setPriceIdForAsset",
      "outputs": [],
      "stateMutability": "nonpayable",
      "type": "function"
    },
    {
      "inputs": [
        {
          "internalType": "contract IPyth",
          "name": "_pyth",
          "type": "address"
        }
      ],
      "name": "setPythAddress",
      "outputs": [],
      "stateMutability": "nonpayable",
      "type": "function"
    },
    {
      "inputs": [],
      "name": "sharePrice",
      "outputs": [
        {
          "internalType": "uint256",
          "name": "",
          "type": "uint256"
        }
      ],
      "stateMutability": "view",
      "type": "function"
    },
    {
      "inputs": [
        {
          "internalType": "bytes4",
          "name": "interfaceId",
          "type": "bytes4"
        }
      ],
      "name": "supportsInterface",
      "outputs": [
        {
          "internalType": "bool",
          "name": "",
          "type": "bool"
        }
      ],
      "stateMutability": "view",
      "type": "function"
    },
    {
      "inputs": [],
      "name": "symbol",
      "outputs": [
        {
          "internalType": "string",
          "name": "",
          "type": "string"
        }
      ],
      "stateMutability": "view",
      "type": "function"
    },
    {
      "inputs": [],
      "name": "totalAssets",
      "outputs": [
        {
          "internalType": "uint256",
          "name": "",
          "type": "uint256"
        }
      ],
      "stateMutability": "view",
      "type": "function"
    },
    {
      "inputs": [
        {
          "internalType": "uint256",
          "name": "maxPriceAge",
          "type": "uint256"
        }
      ],
      "name": "totalAumUsd",
      "outputs": [
        {
          "internalType": "uint256",
          "name": "totalUsd_1e18",
          "type": "uint256"
        }
      ],
      "stateMutability": "view",
      "type": "function"
    },
    {
      "inputs": [],
      "name": "totalRequestedAssets",
      "outputs": [
        {
          "internalType": "uint256",
          "name": "",
          "type": "uint256"
        }
      ],
      "stateMutability": "view",
      "type": "function"
    },
    {
      "inputs": [],
      "name": "totalSupply",
      "outputs": [
        {
          "internalType": "uint256",
          "name": "",
          "type": "uint256"
        }
      ],
      "stateMutability": "view",
      "type": "function"
    },
    {
      "inputs": [],
      "name": "totalWithdrawalAssetsNeeded",
      "outputs": [
        {
          "internalType": "uint256",
          "name": "",
          "type": "uint256"
        }
      ],
      "stateMutability": "view",
      "type": "function"
    },
    {
      "inputs": [],
      "name": "totalWithdrawalSharesNeeded",
      "outputs": [
        {
          "internalType": "uint256",
          "name": "",
          "type": "uint256"
        }
      ],
      "stateMutability": "view",
      "type": "function"
    },
    {
      "inputs": [
        {
          "internalType": "address",
          "name": "to",
          "type": "address"
        },
        {
          "internalType": "uint256",
          "name": "value",
          "type": "uint256"
        }
      ],
      "name": "transfer",
      "outputs": [
        {
          "internalType": "bool",
          "name": "",
          "type": "bool"
        }
      ],
      "stateMutability": "nonpayable",
      "type": "function"
    },
    {
      "inputs": [
        {
          "internalType": "address",
          "name": "from",
          "type": "address"
        },
        {
          "internalType": "address",
          "name": "to",
          "type": "address"
        },
        {
          "internalType": "uint256",
          "name": "value",
          "type": "uint256"
        }
      ],
      "name": "transferFrom",
      "outputs": [
        {
          "internalType": "bool",
          "name": "",
          "type": "bool"
        }
      ],
      "stateMutability": "nonpayable",
      "type": "function"
    },
    {
      "inputs": [
        {
          "internalType": "address",
          "name": "pool",
          "type": "address"
        },
        {
          "internalType": "uint256",
          "name": "amount",
          "type": "uint256"
        }
      ],
      "name": "transferToPool",
      "outputs": [],
      "stateMutability": "nonpayable",
      "type": "function"
    },
    {
      "inputs": [
        {
          "internalType": "address",
          "name": "",
          "type": "address"
        }
      ],
      "name": "userPrincipal",
      "outputs": [
        {
          "internalType": "uint256",
          "name": "",
          "type": "uint256"
        }
      ],
      "stateMutability": "view",
      "type": "function"
    },
    {
      "inputs": [
        {
          "internalType": "address",
          "name": "",
          "type": "address"
        }
      ],
      "name": "userShares",
      "outputs": [
        {
          "internalType": "uint256",
          "name": "",
          "type": "uint256"
        }
      ],
      "stateMutability": "view",
      "type": "function"
    },
    {
      "inputs": [
        {
          "internalType": "uint256",
          "name": "assets",
          "type": "uint256"
        },
        {
          "internalType": "address",
          "name": "receiver",
          "type": "address"
        },
        {
          "internalType": "address",
          "name": "owner",
          "type": "address"
        }
      ],
      "name": "withdraw",
      "outputs": [
        {
          "internalType": "uint256",
          "name": "",
          "type": "uint256"
        }
      ],
      "stateMutability": "nonpayable",
      "type": "function"
    },
    {
      "inputs": [
        {
          "internalType": "address",
          "name": "pool",
          "type": "address"
        },
        {
          "internalType": "uint256",
          "name": "amount",
          "type": "uint256"
        }
      ],
      "name": "withdrawFromPool",
      "outputs": [],
      "stateMutability": "nonpayable",
      "type": "function"
    },
    {
      "inputs": [
        {
          "internalType": "address",
          "name": "owner",
          "type": "address"
        }
      ],
      "name": "withdrawPendingDeposit",
      "outputs": [
        {
          "internalType": "uint256",
          "name": "",
          "type": "uint256"
        }
      ],
      "stateMutability": "nonpayable",
      "type": "function"
    },
    {
      "inputs": [
        {
          "internalType": "address",
          "name": "",
          "type": "address"
        }
      ],
      "name": "withdrawalRequests",
      "outputs": [
        {
          "internalType": "uint256",
          "name": "shares",
          "type": "uint256"
        },
        {
          "internalType": "uint256",
          "name": "assetsAtRequest",
          "type": "uint256"
        },
        {
          "internalType": "address",
          "name": "receiver",
          "type": "address"
        },
        {
          "internalType": "bool",
          "name": "exists",
          "type": "bool"
        }
      ],
      "stateMutability": "view",
      "type": "function"
    },
    {
      "inputs": [
        {
          "internalType": "address",
          "name": "",
          "type": "address"
        }
      ],
      "name": "withdrawerIndex",
      "outputs": [
        {
          "internalType": "uint256",
          "name": "",
          "type": "uint256"
        }
      ],
      "stateMutability": "view",
      "type": "function"
    }
  ],
  "transactionHash": "0x51f8703e682f3d897cb819f0251715e41b5370836d7f2347d2b110064478070b",
  "args": [
    "0x5d3a1Ff2b6BAb83b63cd9AD0787074081a52ef34",
    "AI Yield XYZ",
    "aiXYZ",
    "0x91cbFcd28fAE1940FE32AB6dB7A28649a8986F21",
    "0x4cacfA4B61105852580BA184b6466FD9952654ce"
  ],
  "numDeployments": 43,
  "solcInputHash": "4f4fbb447da05d58398288f467265eef",
  "bytecode": "0x60c080604052346200043957620053ad80380380916200002082856200043e565b8339810160a08282031262000439578151916001600160a01b0391828416840362000439576020828101516001600160401b039591908681116200043957836200006c9186016200047e565b926040850151908782116200043957620000889186016200047e565b9560608501519486861680960362000439576080015195861686036200043957835181811162000339576003908154906001968783811c931680156200042e575b8684101462000418578190601f93848111620003c2575b5086908483116001146200035b576000926200034f575b505060001982851b1c191690871b1782555b8851928311620003395760049384548781811c911680156200032e575b828210146200031957828111620002ce575b50809184116001146200025b5750908291620001a5996000936200024f575b505082861b92600019911b1c19161790555b62000174816200057a565b901562000246575b60a0526080526006556103e8601a55600780546001600160a01b031916919091179055620004e8565b50604051614d6c90816200064182396080518181816103ca0152818161041d01528181610471015281816104e50152818161056f01528181610c6b015281816111fc0152818161131101528181611423015281816114b0015281816115290152818161193401528181611ebb015281816120b6015281816127a1015281816129e901528181613db6015281816144c301526148f3015260a051816128a40152f35b5060126200017c565b01519150388062000157565b9298601f198a168560005284600020946000905b828210620002b6575050918a9391620001a59b899694106200029b575b50505050811b01905562000169565b01519060f884600019921b161c19169055388080806200028c565b808a869882949787015181550197019401906200026f565b85600052816000208380870160051c8201928488106200030f575b0160051c019088905b8281106200030257505062000138565b60008155018890620002f2565b92508192620002e9565b602286634e487b7160e01b6000525260246000fd5b90607f169062000126565b634e487b7160e01b600052604160045260246000fd5b015190503880620000f7565b90899350601f1983169186600052886000209260005b8a828210620003ab575050841162000392575b505050811b01825562000109565b015160001983871b60f8161c1916905538808062000384565b8385015186558d9790950194938401930162000371565b90915084600052866000208480850160051c8201928986106200040e575b918b91869594930160051c01915b828110620003fe575050620000e0565b600081558594508b9101620003ee565b92508192620003e0565b634e487b7160e01b600052602260045260246000fd5b92607f1692620000c9565b600080fd5b601f909101601f19168101906001600160401b038211908210176200033957604052565b6001600160401b0381116200033957601f01601f191660200190565b919080601f8401121562000439578251906200049a8262000462565b91620004aa60405193846200043e565b808352602091828287010111620004395760005b818110620004d457508260009394955001015290565b8581018301518482018401528201620004be565b6001600160a01b031660008181527f05b8ccbb9d4d8fb16ea74ce3c29a41f1b461fbdaff4714a0d9a8eb05499746bc602052604081205490919060ff16620005765781805260056020526040822081835260205260408220600160ff1982541617905533917f2f8788117e7eff1d82e926ec794901d17c78024a50270940304540a733656f0d8180a4600190565b5090565b6040805163313ce56760e01b60208201908152600482529293929181016001600160401b0381118282101762000339576040525160009384928392916001600160a01b03165afa3d1562000637573d90620005d58262000462565b91620005e560405193846200043e565b82523d84602084013e5b806200062a575b62000601575b508190565b60208180518101031262000626576020015160ff8111620005fc576001925060ff1690565b8280fd5b50602081511015620005f6565b606090620005ef56fe6080604052600436101561001257600080fd5b6000803560e01c80628b9b921461323c57806301e1d1141461322157806301ffc9a7146131b057806306fdde03146130f557806307a2d13a146130d6578063095ea7b3146130235780630a28a47714612fcc5780630b8df11014612dc45780630d2d1aa514612d7e5780630f597f6314612d3f5780631556cb1d14612d06578063158b66fb14612cc757806318160ddd14612ca95780631b4f4ed114612c8b5780631dc381cb14612c4657806322e50e2714612c2857806323b872dd14612bef578063248a9ca314612bc257806327b380f314612b5f57806329344f081461298d578063294c2606146129545780632dc91c50146129165780632f2ff15d146128d8578063313ce5671461288f5780633423ee981461283657806336568abe146127ee57806336a1b43d146127d057806338d52e0f1461278b5780633a3b2e871461274e5780633b65261a14612715578063402d267d1461101f57806346904840146126ec5780634cdad5061461269557806350d7f7ee1461265a57806352db43e7146125e95780635489becc146125cb578063558a72971461254457806362dab6261461250b578063630dc7cb146124d05780636e553f651461247057806370a0823114610bb25780637b103999146124475780637d41c86e146121ae57806384f584f0146120495780638726972914611fc45780638ae23f9b14611f7457806391d1485414611f2b57806394bf804d14611e8957806395d89b4114611d87578063a217fddf14611d6b578063a4266aa214611d32578063a9059cbb14611d00578063ac0f35d114611ce2578063b3d7f6b914611cc3578063b460af9414611c12578063b6363cf214611bc2578063b9d4e87914611ba4578063ba08765214611afb578063c1bf9e5814611872578063c20c369614611847578063c32a3ed514611024578063c63d75b61461101f578063c6e6f59214610a49578063ca11dd9714611001578063ce96cb7714610fc8578063d547741f14610f86578063d7efa12914610bf4578063d905777e14610bb2578063dd62ed3e14610b63578063de69b3aa14610b2a578063e74b981b14610a92578063e93409da14610a4e578063ef8b30f714610a49578063f2eb12c0146103805763f98d06f01461035557600080fd5b3461037d578060031936011261037d576008546040516001600160a01b039091168152602090f35b80fd5b503461037d57602036600319011261037d5760075460405163fb13605d60e01b81529082908190839060049082906001600160a01b03165afa918215610743578392610a25575b507f00000000000000000000000000000000000000000000000000000000000000006001600160a01b031683526009602052604083205480151580610a11575b60405163313ce56760e01b8152916020836004817f00000000000000000000000000000000000000000000000000000000000000006001600160a01b03165afa928315610a065786936109c4575b506040516370a0823160e01b81523060048201526020816024817f00000000000000000000000000000000000000000000000000000000000000006001600160a01b03165afa90811561097e578791610992575b508280610989575b6108ff575b50855b85518110156108f457866001600160a01b036104d58389613c0b565b516040516335ea6a7560e01b81527f00000000000000000000000000000000000000000000000000000000000000006001600160a01b0316600482015291169082906101e08082602481875afa91829186936108c5575b5050610799575b5061078e576040516338d52e0f60e01b8152602081600481855afa83918161074e575b5061056d575b50505061056890613bfc565b6104b9565b7f00000000000000000000000000000000000000000000000000000000000000006001600160a01b039081169116146105a7575b8061055c565b6040516370a0823160e01b8152306004820152602081602481855afa90811561074357839161070e575b50801561055c576020906024604051809481936303d1689d60e11b835260048301525afa90811561070357859083926106c7575b50156105a15790919560018060a01b0360085416604051809163052571af60e51b8252866004830152600435602483015281604460809384935afa9384156106bc576106676106859561067f9461066d94610568999261068f575b5050614b7c565b906140df565b61067960ff8916614b59565b90613aa8565b906137e6565b94905086386105a1565b6106ae9250803d106106b5575b6106a681836136e6565b810190614afa565b3880610660565b503d61069c565b6040513d87823e3d90fd5b925050506020813d6020116106fb575b816106e4602093836136e6565b810103126106f6575187908438610605565b600080fd5b3d91506106d7565b6040513d84823e3d90fd5b9250506020823d60201161073b575b8161072a602093836136e6565b810103126106f657889151386105d1565b3d915061071d565b6040513d85823e3d90fd5b9091506020813d602011610786575b8161076a602093836136e6565b810103126107825761077b90613b66565b9038610556565b8380fd5b3d915061075d565b505061056890613bfc565b61010001516001600160a01b03168015610533576040516370a0823160e01b81523060048201529150602090829060249082905afa908115610743578391610890575b50858115610883576107f2575b50600138610533565b90966044608060018060a01b03600854166040519283809263052571af60e51b82528a600483015260043560248301525afa801561087857610852936106676108469261067f948891610859575b50614b7c565b61067960ff8a16614b59565b95386107e9565b610872915060803d6080116106b5576106a681836136e6565b38610840565b6040513d86823e3d90fd5b5050505061056890613bfc565b9250506020823d6020116108bd575b816108ac602093836136e6565b810103126106f657889151386107dc565b3d915061089f565b6108e5929350803d106108ed575b6108dd81836136e6565b810190613c3c565b90388061052c565b503d6108d3565b602085604051908152f35b60085460405163052571af60e51b81526004808201859052356024820152929550608090839060449082906001600160a01b03165afa90811561097e576106676109539261095f948a916109665750614b7c565b61067960ff8516614b59565b92386104b6565b610872915060803d81116106b5576106a681836136e6565b6040513d89823e3d90fd5b508015156104b1565b90506020813d6020116109bc575b816109ad602093836136e6565b810103126106f65751386104a9565b3d91506109a0565b9092506020813d6020116109fe575b816109e0602093836136e6565b810103126109fa575160ff811681036109fa579138610455565b8580fd5b3d91506109d3565b6040513d88823e3d90fd5b506008546001600160a01b03161515610407565b610a429192503d8085833e610a3a81836136e6565b810190613b7a565b90386103c7565b613477565b503461037d57602036600319011261037d576004359060115482101561037d576020610a7983613409565b905460405160039290921b1c6001600160a01b03168152f35b503461037d57602036600319011261037d57610aac6132ef565b610ab46134cf565b6001600160a01b03168015610ad9576001600160601b0360a01b601954161760195580f35b60405162461bcd60e51b8152602060048201526024808201527f46656520726563697069656e742063616e6e6f74206265207a65726f206164646044820152637265737360e01b6064820152608490fd5b503461037d57602036600319011261037d576020906040906001600160a01b03610b526132ef565b168152601883522054604051908152f35b503461037d57604036600319011261037d57610b7d6132ef565b6040610b87613305565b9260018060a01b03809316815260016020522091166000526020526020604060002054604051908152f35b503461037d57602036600319011261037d576020610bec610bd16132ef565b6001600160a01b031660009081526020819052604090205490565b604051908152f35b503461037d57604036600319011261037d57610c0e6132ef565b6024908135610c1b613527565b600754604051633af32abf60e01b81526001600160a01b03848116600483018190529560209593909290869082908590829086165afa8015610f7b57610c68918991610f4e575b50614a8f565b807f0000000000000000000000000000000000000000000000000000000000000000169260405191636eb1769f60e11b835230600484015287848401528683604481885afa918215610f435786889386958c91610f06575b5090610ccb916137e6565b6040805163095ea7b360e01b8187018181526001600160a01b03909516888301908152602081019490945293909286928e9291610d14918691015b03601f1981018652856136e6565b835190828b5af18b513d82610eea575b505015610eb0575b505060075416604051928380926338f6681560e01b82528a60048301525afa90811561097e578791610e83575b506002811015610e7057610dfe57843b156109fa5782906040519263617ba03760e01b84526004840152820152306044820152846064820152848160848183885af180156106bc57610ddb575b5090600080516020614d17833981519152915b8385526016825260408520610dcf8282546137e6565b9055604051908152a280f35b93610df6600080516020614d178339815191529392956136d2565b939091610da6565b905060409291925190636e553f6560e01b82528360048301523090820152818160448188885af180156106bc57610e46575b50600080516020614d1783398151915291610db9565b8190813d8311610e69575b610e5b81836136e6565b810103126107825738610e30565b503d610e51565b50634e487b7160e01b8652602160045285fd5b610ea39150853d8711610ea9575b610e9b81836136e6565b810190614acd565b38610d59565b503d610e91565b610edd610ee39260405190868201528b878201528c604482015260448152610ed7816136a0565b88613a40565b86613a40565b3880610d2c565b909150610efe5750863b15155b3880610d24565b600114610ef7565b94929550505082813d8311610f3c575b610f2081836136e6565b81010312610f38578392610ccb878994519091610cc0565b8880fd5b503d610f16565b6040513d8b823e3d90fd5b610f6e9150873d8911610f74575b610f6681836136e6565b810190614185565b38610c62565b503d610f5c565b6040513d8a823e3d90fd5b503461037d57604036600319011261037d57610fc4600435610fa6613305565b908084526005602052610fbf6001604086200154613583565b613629565b5080f35b503461037d57602036600319011261037d57602090610bec906040906001600160a01b03610ff46132ef565b16815280845220546138c6565b503461037d578060031936011261037d576020600b54604051908152f35b613364565b503461037d57602036600319011261037d5761103e613527565b611046614162565b60075460405163fb13605d60e01b8152908290829060049082906001600160a01b03165afa90811561070357829161182d575b5081905b60115415801580611822575b1561181957611805577f31ecc21a745e3968a04e9570e4425bc18fa8019c68028196b546d1669c200c68546001600160a01b0316808352600f6020526040832060028101549094919060a01c60ff16156117f45760018501549080855260186020526040852054156000146117c357815b828111156117b75761271061111b61111285846140d2565b601a54906140df565b049261112784836140d2565b61112f6148d8565b600e54808211156117af57611143916140d2565b838110611390575b5088546002909901546001600160a01b0316943015611377573089528860205260408920548a811061135057926112298b937f2964b883ce2e047699c10f7f4caf4bdefb6c2e5f565df3c6822619982b89824a96938c60406112d79d9e9f8199308452836020520391205585600254036002558d87518781527fddf252ad1be2c89b69c2b068fc378daa952ba7f163c4a11628f55a4df523b3ef60203092a38015158061133c575b6112fb575b50887f00000000000000000000000000000000000000000000000000000000000000006001600160a01b03166139a8565b858b5260179081602052848c2054908082116000146112f25761124b916140d2565b905b868c52602052838b20556018602052828a2054828082116000146112ea57611274916140d2565b858b526018602052838b2055600f60205289600284822082815582600182015501556012602052828a2060ff1981541690556112ae6149f7565b6015805482808211156112e1576112c4916140d2565b905b5582519182526020820152a3613bfc565b905b91909161107d565b50508a906112c6565b505089611274565b50508a9061124d565b60195461133691906001600160a01b03908116907f0000000000000000000000000000000000000000000000000000000000000000166139a8565b386111f8565b506019546001600160a01b031615156111f3565b60405163391434e360e21b81523060048201526024810191909152604481018b9052606490fd5b604051634b637e8f60e11b8152600481018a9052602490fd5b6113a4908492999a969498979593986140d2565b96895b87518110806117a6575b15611745576001600160a01b036113c8828a613c0b565b511660018060a01b03600754168c604051633af32abf60e01b8152836004820152602081602481865afa9182156116d65791611726575b501561171b576040516370a0823160e01b8152306004820152908d906020836024817f00000000000000000000000000000000000000000000000000000000000000006001600160a01b03165afa9283156107035782936116e2575b506020602491604051928380926338f6681560e01b82528860048301525afa9182156116d657916116b7575b5060028110156116a3578d92919061166157604051631a4ca37b60e21b81526001600160a01b037f0000000000000000000000000000000000000000000000000000000000000000166004820152602481018d905230604482015260208160648187875af19081611636575b5061150a57505050611505905b613bfc565b6113a7565b6040516370a0823160e01b8152306004820152929b93926020816024817f00000000000000000000000000000000000000000000000000000000000000006001600160a01b03165afa90811561162b578d916115f3575b50611505946115c2611584600080516020614cf7833981519152946040946140d2565b9e8f80938783526016806020528684205483818110156000146115e457505083905b898552602052868420558082106115d35750509e8f5b9f6137e6565b9082519182526020820152a2613bfc565b6115dd92506140d2565b9e8f6115bc565b6115ed916140d2565b906115a6565b90506020813d602011611623575b8161160e602093836136e6565b8101031261161f5751611505611561565b8c80fd5b3d9150611601565b6040513d8f823e3d90fd5b602090813d831161165a575b61164c81836136e6565b8101031261078257386114f3565b503d611642565b604051632d182be560e21b8152600481018d90523060248201819052604482015260208160648187875af19081611636575061150a5750505061150590613bfc565b634e487b7160e01b8e52602160045260248efd5b6116d0915060203d602011610ea957610e9b81836136e6565b38611487565b604051903d90823e3d90fd5b9092506020813d602011611713575b816116fe602093836136e6565b8101031261170f575191602061145b565b5080fd5b3d91506116f1565b505061150590613bfc565b61173f915060203d602011610f7457610f6681836136e6565b386113ff565b509193959698979092949861175b575b3861114b565b826117646148d8565b10156117555760405162461bcd60e51b81526020600482015260146024820152736e6f7420656e6f756768206c697175696469747960601b6044820152606490fd5b508815156113b1565b505087611143565b61271061111b87611112565b60176020526117ee6117db60408720548854906140df565b8287526018602052604087205490613aa8565b916110fa565b509192506118006149f7565b6112d9565b634e487b7160e01b82526032600452602482fd5b82600160065580f35b506004358410611089565b61184191503d8084833e610a3a81836136e6565b38611079565b503461037d57602036600319011261037d5760043590600b5482101561037d576020610a7983613440565b503461037d57604036600319011261037d5761188c6132ef565b602435611897613527565b61189f614162565b600754604051633af32abf60e01b81526001600160a01b0393841660048201819052936020939290919082168482602481845afa90811561097e576118ee86926024948a91611ae45750614a8f565b604051928380926338f6681560e01b82528960048301525afa908115610a06578691611ac7575b506002811015611ab3578390611a2157604051631a4ca37b60e21b81527f0000000000000000000000000000000000000000000000000000000000000000929092166001600160a01b03166004830152602482018390523060448301528160648188885af19081156106bc5785916119e0575b5090600080516020614cf783398151915292604092905b8587526016815283872054828181106119d2575050865b86885260168252848820558351928352820152a2600160065580f35b6119db916140d2565b6119b6565b9190508282813d8311611a1a575b6119f881836136e6565b81010312611a16579051600080516020614cf7833981519152611988565b8480fd5b503d6119ee565b5050604051632d182be560e21b81526004810182905230602482018190526044820152828160648188885af19081156106bc578591611a76575b5090600080516020614cf7833981519152926040929061199f565b9190508282813d8311611aac575b611a8e81836136e6565b81010312611a16579051600080516020614cf7833981519152611a5b565b503d611a84565b634e487b7160e01b86526021600452602486fd5b611ade9150843d8611610ea957610e9b81836136e6565b38611915565b610f6e9150843d8611610f7457610f6681836136e6565b503461037d576040611b0c3661338a565b6001600160a01b038116855260208590529290932054909250808311611b715760405162461bcd60e51b815260206004820152601a60248201527f455243373534303a206173796e632072656465656d206f6e6c790000000000006044820152606490fd5b604051632e52afbb60e21b81526001600160a01b0392909216600483015260248201929092526044810191909152606490fd5b503461037d578060031936011261037d576020601a54604051908152f35b503461037d57604036600319011261037d5760ff6040602092611be36132ef565b611beb613305565b6001600160a01b039182168352601b86528383209116825284522054604051911615158152f35b503461037d576040611c44611c263661338a565b6001600160a01b0381168652602086905293909420549093506138c6565b808311611c905760405162461bcd60e51b815260206004820152601c60248201527f455243373534303a206173796e63207769746864726177206f6e6c79000000006044820152606490fd5b604051633fa733bb60e21b81526001600160a01b0392909216600483015260248201929092526044810191909152606490fd5b503461037d57602036600319011261037d576020610bec6004356138f4565b503461037d578060031936011261037d576020601554604051908152f35b503461037d57604036600319011261037d57611d27611d1d6132ef565b6024359033613708565b602060405160018152f35b503461037d57602036600319011261037d576020906040906001600160a01b03611d5a6132ef565b168152601683522054604051908152f35b503461037d578060031936011261037d57602090604051908152f35b503461037d578060031936011261037d576040518160045490600182811c91818416938415611e7f575b6020948585108114611e6b57848752908115611e495750600114611df0575b611dec85611de0818903826136e6565b6040519182918261331b565b0390f35b929450600483527f8a35acfbc15ff81a39ae7d344fd709f28e8600b4aa8c65c6b64bfe7fe36bd19b5b828410611e365750505081611dec93611de0928201019338611dd0565b8054858501870152928501928101611e19565b60ff191686860152505050151560051b8201019150611de081611dec38611dd0565b634e487b7160e01b83526022600452602483fd5b92607f1692611db1565b503461037d57604036600319011261037d576020600435611ea8613305565b90611eb2816138f4565b91611edf8330337f00000000000000000000000000000000000000000000000000000000000000006139eb565b611ee9828261394a565b604051918383528483015260018060a01b0316907fdcbc1c05240f31ff3ad067ef1ee35ce4997762752e3a095284754544f4c709d760403392a3604051908152f35b503461037d57604036600319011261037d5760ff6040602092611f4c613305565b6004358252600585528282206001600160a01b03909116825284522054604051911615158152f35b503461037d57604036600319011261037d5760ff6040602092611f956132ef565b611f9d613305565b6001600160a01b039182168352601c86528383209116825284522054604051911615158152f35b503461037d578060031936011261037d5760025490611fed611fe4613d89565b600e54906140d2565b9082612009575050506020670de0b6b3a7640000604051908152f35b670de0b6b3a764000091828102928184041490151715612035575060209161203091613aa8565b610bec565b634e487b7160e01b81526011600452602490fd5b503461037d576020908160031936011261037d576120656132ef565b9061206e614162565b6001600160a01b03828116808352600d8552604083205490919060ff161561217457818352600a85526040832060ff600182015460a01c161561213d57906120db91549485917f0000000000000000000000000000000000000000000000000000000000000000166139a8565b8152600a8352806001604082208281550155600d83526040812060ff198154169055600c835261210e604082205461495d565b600e548211612135575061212481600e546140d2565b600e555b6001600655604051908152f35b600e55612128565b60405162461bcd60e51b815260048101879052600f60248201526e1a5b9d985b1a59081c995c5d595cdd608a1b6044820152606490fd5b60405162461bcd60e51b81526004810186905260126024820152711b9bc81c195b991a5b99c819195c1bdcda5d60721b6044820152606490fd5b503461037d576121bd3661338a565b6121c993929193614162565b6121d48215156140f2565b60018060a01b039182821692838552602095858752826040872054106123f3578181169384331480156123d5575b156123a157836122339186895260128a5261222460ff60408b20541615614124565b338803612391575b3090613708565b6122b18787612241866138c6565b946002604051612250816136a0565b888152848101888152600f60408301968d88528c606085019760018952525260408d2091518255516001820155019251166001600160601b0360a01b83541617825551151581549060ff60a01b90151560a01b169060ff60a01b1916179055565b601154600160401b81101561237d57906122d48260016122f39401601155613409565b90919082549060031b9160018060a01b03809116831b921b1916179055565b60115460001981019081116123695785926123527f62d893990233869b2bd241f93566f26670d34a0a5d761071695ccd5f8411e4cb9389938787526010855260408720556012845260408620600160ff198254161790556015546137e6565b601555604051908152a46001600655604051908152f35b634e487b7160e01b86526011600452602486fd5b634e487b7160e01b87526041600452602487fd5b61239c8233836137f3565b61222c565b60405162461bcd60e51b815260048101899052600c60248201526b1d5b985d5d1a1bdc9a5e995960a21b6044820152606490fd5b50848752601c885260408720338852885260ff604088205416612202565b60405162461bcd60e51b815260048101889052602660248201527f45524332303a207472616e7366657220616d6f756e7420657863656564732062604482015265616c616e636560d01b6064820152608490fd5b503461037d578060031936011261037d576007546040516001600160a01b039091168152602090f35b503461037d57604036600319011261037d5761248a613305565b5060405162461bcd60e51b815260206004820152601b60248201527f455243373534303a206173796e63206465706f736974206f6e6c7900000000006044820152606490fd5b503461037d578060031936011261037d5760206040517f9cf85f95575c3af1e116e3d37fd41e7f36a8a373623f51ffaaa87fdd032fa7678152f35b503461037d57602036600319011261037d576020906040906001600160a01b036125336132ef565b168152601783522054604051908152f35b503461037d57604036600319011261037d5761255e6132ef565b6024358015158091036125c757338352601c602052604083209160018060a01b0316918284526020526040832060ff1981541660ff83161790556040519081527fceb576d9f15e4e200fdb5096d64d5dfd667e16def20c1eefd14256d8e3faa26760203392a380f35b8280fd5b503461037d578060031936011261037d576020600e54604051908152f35b503461037d57602036600319011261037d576004359061262f604061260d84613440565b90546001600160a01b0360039290921b1c81168452600a602052922092613440565b905492546040805160039390931b9490941c929092166001600160a01b031681526020810191909152f35b503461037d57602036600319011261037d576020906040906001600160a01b036126826132ef565b1681526009835220541515604051908152f35b503461037d57602036600319011261037d5760405162461bcd60e51b815260206004820152601a60248201527f455243373534303a206173796e632072656465656d206f6e6c790000000000006044820152606490fd5b503461037d578060031936011261037d576019546040516001600160a01b039091168152602090f35b503461037d57602036600319011261037d576020906040906001600160a01b0361273d6132ef565b168152600c83522054604051908152f35b503461037d57604036600319011261037d5761278361276b613305565b612773613527565b61277b614162565b60043561419d565b600160065580f35b503461037d578060031936011261037d576040517f00000000000000000000000000000000000000000000000000000000000000006001600160a01b03168152602090f35b503461037d578060031936011261037d576020601454604051908152f35b503461037d57604036600319011261037d57612808613305565b336001600160a01b0382160361282457610fc490600435613629565b60405163334bd91960e11b8152600490fd5b503461037d57602036600319011261037d576060906001600160a01b039060ff90604090836128636132ef565b168152600a602052209160018354930154906040519384528116602084015260a01c1615156040820152f35b503461037d578060031936011261037d5760ff7f0000000000000000000000000000000000000000000000000000000000000000169060ff821161203557602082604051908152f35b503461037d57604036600319011261037d57610fc46004356128f8613305565b9080845260056020526129116001604086200154613583565b6135a9565b503461037d57604036600319011261037d576129306132ef565b6129386134cf565b6001600160a01b03168152600960205260408120602435905580f35b503461037d57602036600319011261037d576020906040906001600160a01b0361297c6132ef565b168152601083522054604051908152f35b503461037d57604036600319011261037d576004356129aa613305565b906129b3614162565b6129be8115156140f2565b3383526020600d81526129d860ff60408620541615614124565b6001600160a01b0392612a0f8330337f000000000000000000000000000000000000000000000000000000000000000088166139eb565b6040516060810181811067ffffffffffffffff82111761237d5760409081528482529185168382018181526001838501818152338a52600a875294892093518455905192018054935160ff60a01b90151560a01b166001600160a81b03199094169290961660ff60a01b19169190911791909117909355600b54600160401b811015612b4b57612aa8816001612ac69301600b55613440565b81546001600160a01b0360039290921b91821b19163390911b179055565b600b546000198101908111612b3757907fc9f3b92a8fdfc80ee2c732a70b330cd9f190bd949aa3dd4f6aa2ba06c0e4992191338652600c82526040862055600d815260408520600160ff19825416179055612b2383600e546137e6565b600e556040519283523392a3600160065580f35b634e487b7160e01b85526011600452602485fd5b634e487b7160e01b85526041600452602485fd5b503461037d57602036600319011261037d576080906001600160a01b039060ff9060409083612b8c6132ef565b168152600f60205220805492600260018301549201549160405194855260208501528116604084015260a01c1615156060820152f35b503461037d57602036600319011261037d5760016040602092600435815260058452200154604051908152f35b503461037d57606036600319011261037d57611d27612c0c6132ef565b612c14613305565b60443591612c238333836137f3565b613708565b503461037d578060031936011261037d576020601154604051908152f35b503461037d57602036600319011261037d576004356001600160a01b0381169081900361170f57612c756134cf565b6001600160601b0360a01b600854161760085580f35b503461037d578060031936011261037d576020601354604051908152f35b503461037d578060031936011261037d576020600254604051908152f35b503461037d57602036600319011261037d5760209060ff906040906001600160a01b03612cf26132ef565b168152600d84522054166040519015158152f35b503461037d57602036600319011261037d576020906040906001600160a01b03612d2e6132ef565b168152600983522054604051908152f35b503461037d57602036600319011261037d5760209060ff906040906001600160a01b03612d6a6132ef565b168152601284522054166040519015158152f35b503461037d57602036600319011261037d576004359061262f6040612da284613409565b90546001600160a01b0360039290921b1c81168452600f602052922092613409565b503461037d57604036600319011261037d57612dde6132ef565b6001600160a01b03908116825260096020526040822054908115612f945760085416908115612f595760809060446040518094819363052571af60e51b8352600483015260243560248301525afa908115610703578291612f3b575b50612e4481614b7c565b9067ffffffffffffffff92836060830151169160408101519460208660030b9201511694828212600014612ec15750612e8163ffffffff91614b67565b1690670de0b6b3a7640000948581029581870414901517156120355750606093610679612ead92614b59565b905b60405192835260208301526040820152f35b91809113600014612f0257670de0b6b3a764000094858102958187041490151715612035575060609361066763ffffffff612efc9316614b59565b90612eaf565b93670de0b6b3a764000080820292508115918304141715612f27576060935090612eaf565b634e487b7160e01b84526011600452602484fd5b612f53915060803d81116106b5576106a681836136e6565b38612e3a565b60405162461bcd60e51b81526020600482015260136024820152721c1e5d1a081bdc9858db19481b9bdd081cd95d606a1b6044820152606490fd5b60405162461bcd60e51b815260206004820152601060248201526f1c1c9a58d9481a59081b9bdd081cd95d60821b6044820152606490fd5b503461037d57602036600319011261037d5760405162461bcd60e51b815260206004820152601c60248201527f455243373534303a206173796e63207769746864726177206f6e6c79000000006044820152606490fd5b503461037d57604036600319011261037d5761303d6132ef565b6024359033156130bd576001600160a01b03169182156130a55760408291338152600160205281812085825260205220556040519081527f8c5be1e5ebec7d5bd14f71427d1e84f3dd0314c0f7b2291e5b200ac8c7c3b92560203392a3602060405160018152f35b60249060405190634a1406b160e11b82526004820152fd5b60405163e602df0560e01b815260048101849052602490fd5b503461037d57602036600319011261037d576020610bec6004356138c6565b503461037d578060031936011261037d576040518160035490600182811c918184169384156131a6575b6020948585108114611e6b57848752908115611e49575060011461314d57611dec85611de0818903826136e6565b929450600383527fc2575a0e9e593c00f959f8c92f12db2869c3395a3b0502d05e2516446f71f85b5b8284106131935750505081611dec93611de0928201019338611dd0565b8054858501870152928501928101613176565b92607f169261311f565b503461037d57602036600319011261037d5760043563ffffffff60e01b811680910361170f57602090631883ba3960e21b81149081156131f6575b506040519015158152f35b637965db0b60e01b811491508115613210575b50826131eb565b6301ffc9a760e01b14905082613209565b503461037d578060031936011261037d576020610bec613d89565b503461037d57604036600319011261037d576132566132ef565b602435906132626134cf565b610bb88210156132bb5760207fbc590c47ab5b0f493568e4bbad2ca8bb15683285a437d974e8157d7d812716d09160018060a01b031692836001600160601b0360a01b601954161760195580601a55604051908152a280f35b60405162461bcd60e51b815260206004820152600c60248201526b0cccaca40e8dede40d0d2ced60a31b6044820152606490fd5b600435906001600160a01b03821682036106f657565b602435906001600160a01b03821682036106f657565b6020808252825181830181905290939260005b82811061335057505060409293506000838284010152601f8019910116010190565b81810186015184820160400152850161332e565b346106f65760203660031901126106f65761337d6132ef565b5060206040516000198152f35b60609060031901126106f657600435906001600160a01b039060243582811681036106f6579160443590811681036106f65790565b601154156133f35760116000527f31ecc21a745e3968a04e9570e4425bc18fa8019c68028196b546d1669c200c6890600090565b634e487b7160e01b600052603260045260246000fd5b6011548110156133f35760116000527f31ecc21a745e3968a04e9570e4425bc18fa8019c68028196b546d1669c200c680190600090565b600b548110156133f357600b6000527f0175b7a638427703f0dbe7bb9bbf987a2551717b34e79f33b5b1008d1fa01db90190600090565b346106f65760203660031901126106f657600254600181018091116134b95761349e613d89565b90600182018092116134b957602091610bec91600435613ab2565b634e487b7160e01b600052601160045260246000fd5b3360009081527f05b8ccbb9d4d8fb16ea74ce3c29a41f1b461fbdaff4714a0d9a8eb05499746bc602052604081205460ff16156135095750565b6044906040519063e2517d3f60e01b82523360048301526024820152fd5b3360009081527f2f031065c6e2cf6a9e344d84a7f51b9a71480f829c9236a927366a3483947a4b60205260409020547f9cf85f95575c3af1e116e3d37fd41e7f36a8a373623f51ffaaa87fdd032fa7679060ff16156135095750565b80600052600560205260406000203360005260205260ff60406000205416156135095750565b906000918083526005602052604083209160018060a01b03169182845260205260ff604084205416156000146136245780835260056020526040832082845260205260408320600160ff198254161790557f2f8788117e7eff1d82e926ec794901d17c78024a50270940304540a733656f0d339380a4600190565b505090565b906000918083526005602052604083209160018060a01b03169182845260205260ff604084205416600014613624578083526005602052604083208284526020526040832060ff1981541690557ff6391f5c32d9c69d2a47ea670b442974b53935d1edc7fd64eb21e047a839171b339380a4600190565b6080810190811067ffffffffffffffff8211176136bc57604052565b634e487b7160e01b600052604160045260246000fd5b67ffffffffffffffff81116136bc57604052565b90601f8019910116810190811067ffffffffffffffff8211176136bc57604052565b916001600160a01b038084169283156137cd57169283156137b45760009083825281602052604082205490838210613782575091604082827fddf252ad1be2c89b69c2b068fc378daa952ba7f163c4a11628f55a4df523b3ef958760209652828652038282205586815220818154019055604051908152a3565b60405163391434e360e21b81526001600160a01b03919091166004820152602481019190915260448101839052606490fd5b60405163ec442f0560e01b815260006004820152602490fd5b604051634b637e8f60e11b815260006004820152602490fd5b919082018092116134b957565b9160018060a01b038093169160009383855260016020526040938486209183169182875260205284862054926000198410613832575b50505050505050565b8484106138965750801561387e57811561386657855260016020528385209085526020520391205538808080808080613829565b8451634a1406b160e11b815260048101879052602490fd5b845163e602df0560e01b815260048101879052602490fd5b8551637dc7a0d960e11b81526001600160a01b039190911660048201526024810184905260448101859052606490fd5b6138ce613d89565b600181018091116134b95760025490600182018092116134b9576138f192613ab2565b90565b6138fc613d89565b600181018091116134b957600254600181018091116134b957613920818385613ab2565b918115613934576138f193091515906137e6565b634e487b7160e01b600052601260045260246000fd5b6001600160a01b03169081156137b4577fddf252ad1be2c89b69c2b068fc378daa952ba7f163c4a11628f55a4df523b3ef60208261398c6000946002546137e6565b60025584845283825260408420818154019055604051908152a3565b60405163a9059cbb60e01b60208201526001600160a01b039290921660248301526044808301939093529181526139e9916139e46064836136e6565b613a40565b565b6040516323b872dd60e01b60208201526001600160a01b03928316602482015292909116604483015260648083019390935291815260a081019181831067ffffffffffffffff8411176136bc576139e9926040525b906000602091828151910182855af115613a9c576000513d613a9357506001600160a01b0381163b155b613a715750565b604051635274afe760e01b81526001600160a01b039091166004820152602490fd5b60011415613a6a565b6040513d6000823e3d90fd5b8115613934570490565b918183029160001981850993838086109503948086039514613b415784831115613b28579082910981600003821680920460028082600302188083028203028083028203028083028203028083028203028083028203028092029003029360018380600003040190848311900302920304170290565b82634e487b71600052156003026011186020526024601cfd5b5050906138f19250613aa8565b67ffffffffffffffff81116136bc5760051b60200190565b51906001600160a01b03821682036106f657565b60209081818403126106f65780519067ffffffffffffffff82116106f657019180601f840112156106f6578251613bb081613b4e565b93613bbe60405195866136e6565b818552838086019260051b8201019283116106f6578301905b828210613be5575050505090565b838091613bf184613b66565b815201910190613bd7565b60001981146134b95760010190565b80518210156133f35760209160051b010190565b51906fffffffffffffffffffffffffffffffff821682036106f657565b6101e0918190038281126106f6576040519283019067ffffffffffffffff90848310828411176136bc576020136106f6576102008401908111828210176136bc57604052815181528252613c9260208201613c1f565b6020830152613ca360408201613c1f565b6040830152613cb460608201613c1f565b6060830152613cc560808201613c1f565b6080830152613cd660a08201613c1f565b60a083015260c081015164ffffffffff811681036106f65760c083015260e081015161ffff811681036106f65760e0830152610100613d16818301613b66565b90830152610120613d28818301613b66565b90830152610140613d3a818301613b66565b90830152610160613d4c818301613b66565b90830152610180613d5e818301613c1f565b908301526101a0613d70818301613c1f565b90830152613d826101c0809201613c1f565b9082015290565b604080516370a0823160e01b808252306004808401919091529192916001600160a01b03916020916024907f0000000000000000000000000000000000000000000000000000000000000000851684888481845afa9788156140c757600098614098575b50816000998a88600754168a519384809263fb13605d60e01b82525afa91821561408e578b92614072575b508a5b825181101561405e5788613e2f8285613c0b565b5116898b516335ea6a7560e01b815286888201526101e080828b81875afa91829160009361403f575b5050613fc3575b508b516338d52e0f60e01b81528691908b818a81875afa60009181613f86575b50613e97575b50505050613e9290613bfc565b613e1b565b1614613ea6575b848a82613e85565b8a51888152308782015289818981855afa908115613f7b57600091613f4e575b5080613ed3575b50613e9e565b899088939e938d51809481936303d1689d60e11b83528b8301525afa908115613f4357600091613f14575b50613f0c90613e92926137e6565b9b9038613ecd565b908982813d8311613f3c575b613f2a81836136e6565b8101031261037d575051613e92613efe565b503d613f20565b8b513d6000823e3d90fd5b908a82813d8311613f74575b613f6481836136e6565b8101031261037d57505138613ec6565b503d613f5a565b8c513d6000823e3d90fd5b8d809295508194503d8311613fbc575b613fa081836136e6565b8101031261037d57508691613fb58d92613b66565b9038613e7f565b503d613f96565b61010001511680613fd5578a90613e5f565b87915089908c9e939e51928380928c8252308b8301525afa908115613f4357600091614010575b5061400a90613e92926137e6565b9b613bfc565b908982813d8311614038575b61402681836136e6565b8101031261037d575051613e92613ffc565b503d61401c565b614056929350803d106108ed576108dd81836136e6565b903880613e58565b50999750505050505050506138f1916137e6565b6140879192503d808d833e610a3a81836136e6565b9038613e18565b89513d8d823e3d90fd5b90978582813d83116140c0575b6140af81836136e6565b8101031261037d5750519638613ded565b503d6140a5565b87513d6000823e3d90fd5b919082039182116134b957565b818102929181159184041417156134b957565b156140f957565b606460405162461bcd60e51b81526020600482015260046024820152637a65726f60e01b6044820152fd5b1561412b57565b60405162461bcd60e51b815260206004820152600f60248201526e616c72656164792070656e64696e6760881b6044820152606490fd5b600260065414614173576002600655565b604051633ee5aeb560e01b8152600490fd5b908160209103126106f6575180151581036106f65790565b919091600091811515806148cd575b1561489357600754604051633af32abf60e01b81526001600160a01b038681166004830152909160209183916024918391165afa908115610878578491614874575b501561483857600b54801561483157839284809360025490614211611fe4613d89565b98826147f3575b614227859a999796989a613b4e565b9461423560405196876136e6565b808652601f1961424482613b4e565b01366020880137849a5b898910806147ea575b1561442e578a9b61426a8a9b9c9a613440565b60018060a01b0391549060031b1c1690818852600a602052604088209160ff600184015460a01c1615614419578254600190930154929b8c938e928c928c926001600160a01b0316908c806143995750509461437e94614369826143759660408b978761438c9e9c61436f996143869f85817f20a1dd1d4b3cbaedef5f083597dc47f5c0094833eeaabdf6af86f45d36056f57925b614309818761394a565b858852601760205282882061431f8382546137e6565b905585885260186020528288206143378282546137e6565b905582519182526020820152a38152600a6020528060018382208281550155600d6020522060ff198154169055613c0b565b52613bfc565b9c6137e6565b9b600e546140d2565b600e55613bfc565b99613bfc565b995b989a9997969a61424e565b91955092506143b393506143ae9195966140df565b613aa8565b8015614403578c61436f8f95614386966143698f8f90604085928b61437e9b61438c9f9d7f20a1dd1d4b3cbaedef5f083597dc47f5c0094833eeaabdf6af86f45d36056f57858d6143759f6142ff565b5050509798509861441390613bfc565b9961438e565b509899505098996144298b61495d565b61438e565b5050965097939650509250825b8281106147b8575050508261444f57505050565b614457613527565b600754604051633af32abf60e01b81526001600160a01b038481166004830152909160209183916024918391165afa908115610703579061449e91839161479f5750614a8f565b604051636eb1769f60e11b81523060048201526001600160a01b0383811660248301527f00000000000000000000000000000000000000000000000000000000000000001690602081604481855afa80156107435785908490614769575b61450692506137e6565b60405163095ea7b360e01b60208083018281526001600160a01b03881660248501526044840194909452909285906145418460648101610d06565b83519082875af184513d8261474d575b505015614709575b50506007546040516338f6681560e01b81526001600160a01b038581166004830152909160209183916024918391165afa9081156107435783916146ea575b5060028110156146d657614657576001600160a01b0383163b1561170f5760405163617ba03760e01b8152600481019190915260248101849052306044820152606481018290528181608481836001600160a01b0388165af1801561070357602092600080516020614d178339815191529492604092614648575b505b6001600160a01b0383168152601684522080546146339086906137e6565b90556040519384526001600160a01b031692a2565b614651906136d2565b38614613565b50604051636e553f6560e01b815260048101849052306024820152602081604481856001600160a01b0388165af18015610703576146ab575b50600080516020614d17833981519152916040602092614615565b602090813d83116146cf575b6146c181836136e6565b8101031261037d5738614690565b503d6146b7565b634e487b7160e01b83526021600452602483fd5b614703915060203d602011610ea957610e9b81836136e6565b38614598565b6147406147469260405190602082015260018060a01b03871660248201528560448201526044815261473a816136a0565b84613a40565b82613a40565b3880614559565b9091506147615750823b15155b3880614551565b60011461475a565b50506020813d602011614797575b81614784602093836136e6565b810103126125c7578461450691516144fc565b3d9150614777565b610f6e915060203d602011610f7457610f6681836136e6565b6147c281846140d2565b6000198101908111612b3757906115006147df6147e59385613c0b565b5161495d565b61443b565b50818110614257565b896142185760405162461bcd60e51b81526020600482015260116024820152706e6f206261636b696e672061737365747360781b6044820152606490fd5b5092505050565b60405162461bcd60e51b8152602060048201526014602482015273141bdbdb081b9bdd081dda1a5d195b1a5cdd195960621b6044820152606490fd5b61488d915060203d602011610f7457610f6681836136e6565b386141ee565b60405162461bcd60e51b8152602060048201526012602482015271496e76616c69642062617463682073697a6560701b6044820152606490fd5b5060058211156141ac565b6040516370a0823160e01b81523060048201526020816024817f00000000000000000000000000000000000000000000000000000000000000006001600160a01b03165afa908115613a9c5760009161492f575090565b906020823d8211614955575b81614948602093836136e6565b8101031261037d57505190565b3d915061493b565b600b5490818110156149f357600019918083019081116134b95761498090613440565b905460039190911b1c6001600160a01b031661499f816122d484613440565b600052600c602052604060002055600b5480156149dd57016149d86149c382613440565b81549060018060a01b039060031b1b19169055565b600b55565b634e487b7160e01b600052603160045260246000fd5b5050565b6011548015614a8c57614a086133bf565b9054906000198084019384116134b957614a2184613409565b90546001600160a01b039560039290921b1c851690614a6b575b5060115480156149dd5701614a526149c382613409565b60115560031b1c16600052601060205260006040812055565b614a77816122d46133bf565b60005260106020526000604081205538614a3b565b50565b15614a9657565b60405162461bcd60e51b815260206004820152600f60248201526e1b9bdd081dda1a5d195b1a5cdd1959608a1b6044820152606490fd5b908160209103126106f6575160028110156106f65790565b519067ffffffffffffffff821682036106f657565b908160809103126106f65760405190614b12826136a0565b80518060070b81036106f6578252614b2c60208201614ae5565b602083015260408101518060030b81036106f6576040830152614b5190606001614ae5565b606082015290565b604d81116134b957600a0a90565b60030b637fffffff1981146134b95760000390565b600080825160070b1315614cb1576040820151918260030b905160070b9282808312600014614c1d575050614bb563ffffffff91614b67565b169060248211614be757670de0b6b3a7640000928381029381850414901517156120355750906106796138f192614b59565b60405162461bcd60e51b815260206004820152600e60248201526d195e1c1bc81d1bdbc81cdb585b1b60921b6044820152606490fd5b90911315614c925763ffffffff1690600c8211614c5c57670de0b6b3a7640000928381029381850414901517156120355750906106676138f192614b59565b60405162461bcd60e51b815260206004820152600e60248201526d6578706f20746f6f206c6172676560901b6044820152606490fd5b50670de0b6b3a764000091828102928184041490151715612035575090565b60405162461bcd60e51b815260206004820152601860248201527f707974683a206e6f6e2d706f73697469766520707269636500000000000000006044820152606490fdfe4e263f66e088b39f0d0855a71de61fdd97a363015db80b9b27791e61c1feb323397b6fd6d85323b5187f3d7dd7221460e0ad6674e51d3509d52960b9db912008a2646970667358221220f91779e69383c37a1c09e712702a640aeb7cae98948fbe863b3da92011548d9964736f6c63430008140033",
  "devdoc": {
    "errors": {
      "AccessControlBadConfirmation()": [
        {
          "details": "The caller of a function is not the expected one. NOTE: Don't confuse with {AccessControlUnauthorizedAccount}."
        }
      ],
      "AccessControlUnauthorizedAccount(address,bytes32)": [
        {
          "details": "The `account` is missing a role."
        }
      ],
      "ERC20InsufficientAllowance(address,uint256,uint256)": [
        {
          "details": "Indicates a failure with the `spender`s `allowance`. Used in transfers.",
          "params": {
            "allowance": "Amount of tokens a `spender` is allowed to operate with.",
            "needed": "Minimum amount required to perform a transfer.",
            "spender": "Address that may be allowed to operate on tokens without being their owner."
          }
        }
      ],
      "ERC20InsufficientBalance(address,uint256,uint256)": [
        {
          "details": "Indicates an error related to the current `balance` of a `sender`. Used in transfers.",
          "params": {
            "balance": "Current balance for the interacting account.",
            "needed": "Minimum amount required to perform a transfer.",
            "sender": "Address whose tokens are being transferred."
          }
        }
      ],
      "ERC20InvalidApprover(address)": [
        {
          "details": "Indicates a failure with the `approver` of a token to be approved. Used in approvals.",
          "params": {
            "approver": "Address initiating an approval operation."
          }
        }
      ],
      "ERC20InvalidReceiver(address)": [
        {
          "details": "Indicates a failure with the token `receiver`. Used in transfers.",
          "params": {
            "receiver": "Address to which tokens are being transferred."
          }
        }
      ],
      "ERC20InvalidSender(address)": [
        {
          "details": "Indicates a failure with the token `sender`. Used in transfers.",
          "params": {
            "sender": "Address whose tokens are being transferred."
          }
        }
      ],
      "ERC20InvalidSpender(address)": [
        {
          "details": "Indicates a failure with the `spender` to be approved. Used in approvals.",
          "params": {
            "spender": "Address that may be allowed to operate on tokens without being their owner."
          }
        }
      ],
      "ERC4626ExceededMaxDeposit(address,uint256,uint256)": [
        {
          "details": "Attempted to deposit more assets than the max amount for `receiver`."
        }
      ],
      "ERC4626ExceededMaxMint(address,uint256,uint256)": [
        {
          "details": "Attempted to mint more shares than the max amount for `receiver`."
        }
      ],
      "ERC4626ExceededMaxRedeem(address,uint256,uint256)": [
        {
          "details": "Attempted to redeem more shares than the max amount for `receiver`."
        }
      ],
      "ERC4626ExceededMaxWithdraw(address,uint256,uint256)": [
        {
          "details": "Attempted to withdraw more assets than the max amount for `receiver`."
        }
      ],
      "ReentrancyGuardReentrantCall()": [
        {
          "details": "Unauthorized reentrant call."
        }
      ],
      "SafeERC20FailedOperation(address)": [
        {
          "details": "An operation with an ERC-20 token failed."
        }
      ]
    },
    "events": {
      "Approval(address,address,uint256)": {
        "details": "Emitted when the allowance of a `spender` for an `owner` is set by a call to {approve}. `value` is the new allowance."
      },
      "RoleAdminChanged(bytes32,bytes32,bytes32)": {
        "details": "Emitted when `newAdminRole` is set as ``role``'s admin role, replacing `previousAdminRole` `DEFAULT_ADMIN_ROLE` is the starting admin for all roles, despite {RoleAdminChanged} not being emitted signaling this."
      },
      "RoleGranted(bytes32,address,address)": {
        "details": "Emitted when `account` is granted `role`. `sender` is the account that originated the contract call. This account bears the admin role (for the granted role). Expected in cases where the role was granted using the internal {AccessControl-_grantRole}."
      },
      "RoleRevoked(bytes32,address,address)": {
        "details": "Emitted when `account` is revoked `role`. `sender` is the account that originated the contract call:   - if using `revokeRole`, it is the admin role bearer   - if using `renounceRole`, it is the role bearer (i.e. `account`)"
      },
      "Transfer(address,address,uint256)": {
        "details": "Emitted when `value` tokens are moved from one account (`from`) to another (`to`). Note that `value` may be zero."
      }
    },
    "kind": "dev",
    "methods": {
      "allowance(address,address)": {
        "details": "See {IERC20-allowance}."
      },
      "approve(address,uint256)": {
        "details": "See {IERC20-approve}. NOTE: If `value` is the maximum `uint256`, the allowance is not updated on `transferFrom`. This is semantically equivalent to an infinite approval. Requirements: - `spender` cannot be the zero address."
      },
      "asset()": {
        "details": "See {IERC4626-asset}. "
      },
      "balanceOf(address)": {
        "details": "See {IERC20-balanceOf}."
      },
      "convertToAssets(uint256)": {
        "details": "See {IERC4626-convertToAssets}. "
      },
      "convertToShares(uint256)": {
        "details": "See {IERC4626-convertToShares}. "
      },
      "decimals()": {
        "details": "Decimals are computed by adding the decimal offset on top of the underlying asset's decimals. This \"original\" value is cached during construction of the vault contract. If this read operation fails (e.g., the asset has not been created yet), a default of 18 is used to represent the underlying asset's decimals. See {IERC20Metadata-decimals}."
      },
      "getAssetPriceUsd(address,uint256)": {
        "params": {
          "asset": "The address of the asset to get the price for",
          "maxPriceAge": "Maximum acceptable age in seconds for the price data"
        },
        "returns": {
          "confidence_1e18": "The confidence interval of the price (also with 18 decimals)",
          "priceUsd_1e18": "The price in USD with 18 decimals",
          "publishTime": "The timestamp when the price was published"
        }
      },
      "getRoleAdmin(bytes32)": {
        "details": "Returns the admin role that controls `role`. See {grantRole} and {revokeRole}. To change a role's admin, use {_setRoleAdmin}."
      },
      "grantRole(bytes32,address)": {
        "details": "Grants `role` to `account`. If `account` had not been already granted `role`, emits a {RoleGranted} event. Requirements: - the caller must have ``role``'s admin role. May emit a {RoleGranted} event."
      },
      "hasAssetPriceId(address)": {
        "params": {
          "asset": "The address of the asset to check"
        },
        "returns": {
          "_0": "True if a price ID is set for the asset, false otherwise"
        }
      },
      "hasRole(bytes32,address)": {
        "details": "Returns `true` if `account` has been granted `role`."
      },
      "maxDeposit(address)": {
        "details": "See {IERC4626-maxDeposit}. "
      },
      "maxMint(address)": {
        "details": "See {IERC4626-maxMint}. "
      },
      "maxRedeem(address)": {
        "details": "See {IERC4626-maxRedeem}. "
      },
      "maxWithdraw(address)": {
        "details": "See {IERC4626-maxWithdraw}. "
      },
      "mint(uint256,address)": {
        "details": "See {IERC4626-mint}. "
      },
      "name()": {
        "details": "Returns the name of the token."
      },
      "previewDeposit(uint256)": {
        "details": "See {IERC4626-previewDeposit}. "
      },
      "previewMint(uint256)": {
        "details": "See {IERC4626-previewMint}. "
      },
      "redeem(uint256,address,address)": {
        "details": "See {IERC4626-redeem}. "
      },
      "renounceRole(bytes32,address)": {
        "details": "Revokes `role` from the calling account. Roles are often managed via {grantRole} and {revokeRole}: this function's purpose is to provide a mechanism for accounts to lose their privileges if they are compromised (such as when a trusted device is misplaced). If the calling account had been revoked `role`, emits a {RoleRevoked} event. Requirements: - the caller must be `callerConfirmation`. May emit a {RoleRevoked} event."
      },
      "revokeRole(bytes32,address)": {
        "details": "Revokes `role` from `account`. If `account` had been granted `role`, emits a {RoleRevoked} event. Requirements: - the caller must have ``role``'s admin role. May emit a {RoleRevoked} event."
      },
      "setFeeRecipient(address)": {
        "details": "Sets the fee recipient address",
        "params": {
          "_feeRecipient": "The address to receive performance fees"
        }
      },
      "supportsInterface(bytes4)": {
        "details": "See {IERC165-supportsInterface}."
      },
      "symbol()": {
        "details": "Returns the symbol of the token, usually a shorter version of the name."
      },
      "totalAssets()": {
        "details": "See {IERC4626-totalAssets}. "
      },
      "totalAumUsd(uint256)": {
        "params": {
          "maxPriceAge": "maximum acceptable age in seconds for Pyth price (reverts if price older)"
        }
      },
      "totalSupply()": {
        "details": "See {IERC20-totalSupply}."
      },
      "transfer(address,uint256)": {
        "details": "See {IERC20-transfer}. Requirements: - `to` cannot be the zero address. - the caller must have a balance of at least `value`."
      },
      "transferFrom(address,address,uint256)": {
        "details": "See {IERC20-transferFrom}. Skips emitting an {Approval} event indicating an allowance update. This is not required by the ERC. See {xref-ERC20-_approve-address-address-uint256-bool-}[_approve]. NOTE: Does not update the allowance if the current allowance is the maximum `uint256`. Requirements: - `from` and `to` cannot be the zero address. - `from` must have a balance of at least `value`. - the caller must have allowance for ``from``'s tokens of at least `value`."
      },
      "withdraw(uint256,address,address)": {
        "details": "See {IERC4626-withdraw}. "
      }
    },
    "title": "YieldAllocatorVault (ERC-4626 + ERC-7540 async deposit/withdraw FIFO with performance fee)",
    "version": 1
  },
  "userdoc": {
    "kind": "user",
    "methods": {
      "getAssetPriceUsd(address,uint256)": {
        "notice": "Get the latest USD price for a specific asset"
      },
      "hasAssetPriceId(address)": {
        "notice": "Check if a price ID is set for a specific asset"
      },
      "setPriceIdForAsset(address,bytes32)": {
        "notice": "set the Pyth price id for a given ERC20 asset (e.g. TOKEN/USD price id)"
      },
      "totalAumUsd(uint256)": {
        "notice": "Returns total AUM denominated in USD (1e18 fixed) using Pyth prices."
      }
    },
    "notice": "- Deposits: async (ERC-7540-style)  users request, executor batches & fulfills later (mint shares).  - Withdrawals: async (ERC-7540-style)  users request, executor batches & fulfills later (burn shares).  - Both maintained in FIFO queues.  - Performance fee: charged on yields during withdrawals only.",
    "version": 1
  },
  "storageLayout": {
    "storage": [
      {
        "astId": 798,
        "contract": "contracts/YieldAllocatorVault.sol:YieldAllocatorVault",
        "label": "_balances",
        "offset": 0,
        "slot": "0",
        "type": "t_mapping(t_address,t_uint256)"
      },
      {
        "astId": 804,
        "contract": "contracts/YieldAllocatorVault.sol:YieldAllocatorVault",
        "label": "_allowances",
        "offset": 0,
        "slot": "1",
        "type": "t_mapping(t_address,t_mapping(t_address,t_uint256))"
      },
      {
        "astId": 806,
        "contract": "contracts/YieldAllocatorVault.sol:YieldAllocatorVault",
        "label": "_totalSupply",
        "offset": 0,
        "slot": "2",
        "type": "t_uint256"
      },
      {
        "astId": 808,
        "contract": "contracts/YieldAllocatorVault.sol:YieldAllocatorVault",
        "label": "_name",
        "offset": 0,
        "slot": "3",
        "type": "t_string_storage"
      },
      {
        "astId": 810,
        "contract": "contracts/YieldAllocatorVault.sol:YieldAllocatorVault",
        "label": "_symbol",
        "offset": 0,
        "slot": "4",
        "type": "t_string_storage"
      },
      {
        "astId": 26,
        "contract": "contracts/YieldAllocatorVault.sol:YieldAllocatorVault",
        "label": "_roles",
        "offset": 0,
        "slot": "5",
        "type": "t_mapping(t_bytes32,t_struct(RoleData)21_storage)"
      },
      {
        "astId": 2581,
        "contract": "contracts/YieldAllocatorVault.sol:YieldAllocatorVault",
        "label": "_status",
        "offset": 0,
        "slot": "6",
        "type": "t_uint256"
      },
      {
        "astId": 6729,
        "contract": "contracts/YieldAllocatorVault.sol:YieldAllocatorVault",
        "label": "registry",
        "offset": 0,
        "slot": "7",
        "type": "t_contract(WhitelistRegistry)6673"
      },
      {
        "astId": 6732,
        "contract": "contracts/YieldAllocatorVault.sol:YieldAllocatorVault",
        "label": "pyth",
        "offset": 0,
        "slot": "8",
        "type": "t_contract(IPyth)6710"
      },
      {
        "astId": 6736,
        "contract": "contracts/YieldAllocatorVault.sol:YieldAllocatorVault",
        "label": "priceIdForAsset",
        "offset": 0,
        "slot": "9",
        "type": "t_mapping(t_address,t_bytes32)"
      },
      {
        "astId": 6748,
        "contract": "contracts/YieldAllocatorVault.sol:YieldAllocatorVault",
        "label": "depositRequests",
        "offset": 0,
        "slot": "10",
        "type": "t_mapping(t_address,t_struct(DepositRequest)6743_storage)"
      },
      {
        "astId": 6751,
        "contract": "contracts/YieldAllocatorVault.sol:YieldAllocatorVault",
        "label": "pendingDepositors",
        "offset": 0,
        "slot": "11",
        "type": "t_array(t_address)dyn_storage"
      },
      {
        "astId": 6755,
        "contract": "contracts/YieldAllocatorVault.sol:YieldAllocatorVault",
        "label": "depositorIndex",
        "offset": 0,
        "slot": "12",
        "type": "t_mapping(t_address,t_uint256)"
      },
      {
        "astId": 6759,
        "contract": "contracts/YieldAllocatorVault.sol:YieldAllocatorVault",
        "label": "hasPendingDeposit",
        "offset": 0,
        "slot": "13",
        "type": "t_mapping(t_address,t_bool)"
      },
      {
        "astId": 6761,
        "contract": "contracts/YieldAllocatorVault.sol:YieldAllocatorVault",
        "label": "pendingDepositAssets",
        "offset": 0,
        "slot": "14",
        "type": "t_uint256"
      },
      {
        "astId": 6775,
        "contract": "contracts/YieldAllocatorVault.sol:YieldAllocatorVault",
        "label": "withdrawalRequests",
        "offset": 0,
        "slot": "15",
        "type": "t_mapping(t_address,t_struct(WithdrawalRequest)6770_storage)"
      },
      {
        "astId": 6779,
        "contract": "contracts/YieldAllocatorVault.sol:YieldAllocatorVault",
        "label": "withdrawerIndex",
        "offset": 0,
        "slot": "16",
        "type": "t_mapping(t_address,t_uint256)"
      },
      {
        "astId": 6782,
        "contract": "contracts/YieldAllocatorVault.sol:YieldAllocatorVault",
        "label": "pendingWithdrawers",
        "offset": 0,
        "slot": "17",
        "type": "t_array(t_address)dyn_storage"
      },
      {
        "astId": 6786,
        "contract": "contracts/YieldAllocatorVault.sol:YieldAllocatorVault",
        "label": "hasPendingWithdrawal",
        "offset": 0,
        "slot": "18",
        "type": "t_mapping(t_address,t_bool)"
      },
      {
        "astId": 6788,
        "contract": "contracts/YieldAllocatorVault.sol:YieldAllocatorVault",
        "label": "totalWithdrawalSharesNeeded",
        "offset": 0,
        "slot": "19",
        "type": "t_uint256"
      },
      {
        "astId": 6790,
        "contract": "contracts/YieldAllocatorVault.sol:YieldAllocatorVault",
        "label": "totalWithdrawalAssetsNeeded",
        "offset": 0,
        "slot": "20",
        "type": "t_uint256"
      },
      {
        "astId": 6792,
        "contract": "contracts/YieldAllocatorVault.sol:YieldAllocatorVault",
        "label": "totalRequestedAssets",
        "offset": 0,
        "slot": "21",
        "type": "t_uint256"
      },
      {
        "astId": 6796,
        "contract": "contracts/YieldAllocatorVault.sol:YieldAllocatorVault",
        "label": "poolPrincipal",
        "offset": 0,
        "slot": "22",
        "type": "t_mapping(t_address,t_uint256)"
      },
      {
        "astId": 6800,
        "contract": "contracts/YieldAllocatorVault.sol:YieldAllocatorVault",
        "label": "userPrincipal",
        "offset": 0,
        "slot": "23",
        "type": "t_mapping(t_address,t_uint256)"
      },
      {
        "astId": 6804,
        "contract": "contracts/YieldAllocatorVault.sol:YieldAllocatorVault",
        "label": "userShares",
        "offset": 0,
        "slot": "24",
        "type": "t_mapping(t_address,t_uint256)"
      },
      {
        "astId": 6806,
        "contract": "contracts/YieldAllocatorVault.sol:YieldAllocatorVault",
        "label": "feeRecipient",
        "offset": 0,
        "slot": "25",
        "type": "t_address"
      },
      {
        "astId": 6809,
        "contract": "contracts/YieldAllocatorVault.sol:YieldAllocatorVault",
        "label": "performanceFeeBps",
        "offset": 0,
        "slot": "26",
        "type": "t_uint256"
      },
      {
        "astId": 6905,
        "contract": "contracts/YieldAllocatorVault.sol:YieldAllocatorVault",
        "label": "isOperator",
        "offset": 0,
        "slot": "27",
        "type": "t_mapping(t_address,t_mapping(t_address,t_bool))"
      },
      {
        "astId": 6911,
        "contract": "contracts/YieldAllocatorVault.sol:YieldAllocatorVault",
        "label": "isOperator7540",
        "offset": 0,
        "slot": "28",
        "type": "t_mapping(t_address,t_mapping(t_address,t_bool))"
      }
    ],
    "types": {
      "t_address": {
        "encoding": "inplace",
        "label": "address",
        "numberOfBytes": "20"
      },
      "t_array(t_address)dyn_storage": {
        "base": "t_address",
        "encoding": "dynamic_array",
        "label": "address[]",
        "numberOfBytes": "32"
      },
      "t_bool": {
        "encoding": "inplace",
        "label": "bool",
        "numberOfBytes": "1"
      },
      "t_bytes32": {
        "encoding": "inplace",
        "label": "bytes32",
        "numberOfBytes": "32"
      },
      "t_contract(IPyth)6710": {
        "encoding": "inplace",
        "label": "contract IPyth",
        "numberOfBytes": "20"
      },
      "t_contract(WhitelistRegistry)6673": {
        "encoding": "inplace",
        "label": "contract WhitelistRegistry",
        "numberOfBytes": "20"
      },
      "t_mapping(t_address,t_bool)": {
        "encoding": "mapping",
        "key": "t_address",
        "label": "mapping(address => bool)",
        "numberOfBytes": "32",
        "value": "t_bool"
      },
      "t_mapping(t_address,t_bytes32)": {
        "encoding": "mapping",
        "key": "t_address",
        "label": "mapping(address => bytes32)",
        "numberOfBytes": "32",
        "value": "t_bytes32"
      },
      "t_mapping(t_address,t_mapping(t_address,t_bool))": {
        "encoding": "mapping",
        "key": "t_address",
        "label": "mapping(address => mapping(address => bool))",
        "numberOfBytes": "32",
        "value": "t_mapping(t_address,t_bool)"
      },
      "t_mapping(t_address,t_mapping(t_address,t_uint256))": {
        "encoding": "mapping",
        "key": "t_address",
        "label": "mapping(address => mapping(address => uint256))",
        "numberOfBytes": "32",
        "value": "t_mapping(t_address,t_uint256)"
      },
      "t_mapping(t_address,t_struct(DepositRequest)6743_storage)": {
        "encoding": "mapping",
        "key": "t_address",
        "label": "mapping(address => struct YieldAllocatorVault.DepositRequest)",
        "numberOfBytes": "32",
        "value": "t_struct(DepositRequest)6743_storage"
      },
      "t_mapping(t_address,t_struct(WithdrawalRequest)6770_storage)": {
        "encoding": "mapping",
        "key": "t_address",
        "label": "mapping(address => struct YieldAllocatorVault.WithdrawalRequest)",
        "numberOfBytes": "32",
        "value": "t_struct(WithdrawalRequest)6770_storage"
      },
      "t_mapping(t_address,t_uint256)": {
        "encoding": "mapping",
        "key": "t_address",
        "label": "mapping(address => uint256)",
        "numberOfBytes": "32",
        "value": "t_uint256"
      },
      "t_mapping(t_bytes32,t_struct(RoleData)21_storage)": {
        "encoding": "mapping",
        "key": "t_bytes32",
        "label": "mapping(bytes32 => struct AccessControl.RoleData)",
        "numberOfBytes": "32",
        "value": "t_struct(RoleData)21_storage"
      },
      "t_string_storage": {
        "encoding": "bytes",
        "label": "string",
        "numberOfBytes": "32"
      },
      "t_struct(DepositRequest)6743_storage": {
        "encoding": "inplace",
        "label": "struct YieldAllocatorVault.DepositRequest",
        "members": [
          {
            "astId": 6738,
            "contract": "contracts/YieldAllocatorVault.sol:YieldAllocatorVault",
            "label": "assets",
            "offset": 0,
            "slot": "0",
            "type": "t_uint256"
          },
          {
            "astId": 6740,
            "contract": "contracts/YieldAllocatorVault.sol:YieldAllocatorVault",
            "label": "receiver",
            "offset": 0,
            "slot": "1",
            "type": "t_address"
          },
          {
            "astId": 6742,
            "contract": "contracts/YieldAllocatorVault.sol:YieldAllocatorVault",
            "label": "exists",
            "offset": 20,
            "slot": "1",
            "type": "t_bool"
          }
        ],
        "numberOfBytes": "64"
      },
      "t_struct(RoleData)21_storage": {
        "encoding": "inplace",
        "label": "struct AccessControl.RoleData",
        "members": [
          {
            "astId": 18,
            "contract": "contracts/YieldAllocatorVault.sol:YieldAllocatorVault",
            "label": "hasRole",
            "offset": 0,
            "slot": "0",
            "type": "t_mapping(t_address,t_bool)"
          },
          {
            "astId": 20,
            "contract": "contracts/YieldAllocatorVault.sol:YieldAllocatorVault",
            "label": "adminRole",
            "offset": 0,
            "slot": "1",
            "type": "t_bytes32"
          }
        ],
        "numberOfBytes": "64"
      },
      "t_struct(WithdrawalRequest)6770_storage": {
        "encoding": "inplace",
        "label": "struct YieldAllocatorVault.WithdrawalRequest",
        "members": [
          {
            "astId": 6763,
            "contract": "contracts/YieldAllocatorVault.sol:YieldAllocatorVault",
            "label": "shares",
            "offset": 0,
            "slot": "0",
            "type": "t_uint256"
          },
          {
            "astId": 6765,
            "contract": "contracts/YieldAllocatorVault.sol:YieldAllocatorVault",
            "label": "assetsAtRequest",
            "offset": 0,
            "slot": "1",
            "type": "t_uint256"
          },
          {
            "astId": 6767,
            "contract": "contracts/YieldAllocatorVault.sol:YieldAllocatorVault",
            "label": "receiver",
            "offset": 0,
            "slot": "2",
            "type": "t_address"
          },
          {
            "astId": 6769,
            "contract": "contracts/YieldAllocatorVault.sol:YieldAllocatorVault",
            "label": "exists",
            "offset": 20,
            "slot": "2",
            "type": "t_bool"
          }
        ],
        "numberOfBytes": "96"
      },
      "t_uint256": {
        "encoding": "inplace",
        "label": "uint256",
        "numberOfBytes": "32"
      }
    }
  }
}